:100000000C94B2050C94CF050C94CF050C94CF053D
:100010000C94CF050C94CF050C94CF050C94CF0510
:100020000C94CF050C94CF050C949D130C943418AC
:100030000C940C240C94CF050C94CF050C94CF0594
:100040000C94CF050C94CF050C94CF050C94CF05E0
:100050000C94CF050C9476140C94CF050C94CF051A
:100060000C94CF050C94CF050C94CF050C94CF05C0
:100070000C94CF050C94CF050C94CF050C94CF05B0
:100080000C94CF050C94CF050C94CF050C94CF05A0
:100090000C94CF050C94CF050C94CF050C94CF0590
:1000A0000C94CF050C94CF050C94CF0505010902E3
:1000B000A10185020901A1000509190129081500FE
:1000C0002501950875018102050109300931158165
:1000D000257F95027508810609381581257F9501D0
:1000E00075088106050C0A38021581257F95017572
:1000F000088106C0C005010980A101850319012AF4
:10010000B700150126B700950175108100C0050CD8
:100110000901A101850419012AA002150126A002E6
:10012000950175108100C005010906A1018506052C
:100130000719E029E71500250195087501810205D9
:1001400007190029EF1500250195F07501810205B9
:10015000081901290595057501910295017503910D
:1001600001C00660FF0961A1010962150026FF00B8
:100170009520750881020963150026FF00952075FA
:10018000089102C005010906A101050719E029E748
:1001900015002501950875018102950175088101F9
:1001A0000507190029FF150026FF0095067508812F
:1001B000000508190129059505750191029501753C
:1001C000039101C030300000DA0281FFD9F1DB2059
:1001D000A4A62EAF00A0C000A1C800AED580A81F65
:1001E000D300408D1420001E0F0500047F3F1F64C4
:1001F0003214643214783C1E1E140A057363723A7A
:100200002E007363723A2A004C69676874002D2DC2
:100210002D2D2D006361703A2E006361703A2A0023
:100220006E756D3A2E006E756D3A2A0053746174C6
:1002300073002D2D2D2D2D0020554E4400205247AA
:100240004200204E41560020424153004C617965E6
:10025000720000010101010101010101020202021B
:100260000202020202030303030303030304040460
:100270000404040405050505050606060606070729
:1002800007070708080808090909090A0A0A0B0BE1
:100290000B0C0C0C0D0D0D0E0E0E0F0F0F10101180
:1002A0001111121213131414151516161717181806
:1002B00019191A1A1B1B1C1D1D1E1E1F202021226E
:1002C00022232424252626272829292A2B2C2D2DB4
:1002D0002E2F30313232333435363738393A3B3CD1
:1002E0003D3E3F404142434445464748494A4C4DC4
:1002F0004E4F50515354555658595A5B5D5E5F618D
:100300006264656668696B6C6D6F7072737577781F
:100310007A7B7D7E8082838587888A8C8E8F91937D
:100320009596989A9C9EA0A2A3A5A7A9ABADAFB1A4
:10033000B3B5B7BABCBEC0C2C4C6C9CBCDCFD1D489
:10034000D6D8DBDDDFE2E4E7E9EBEEF0F3F5F8FA2F
:10035000FDFFFFAA7F55402223252628292A2C2D80
:100360002F3032333536383A3B3D3E4042434547E5
:10037000494A4C4E5051535557595A5C5E6062641D
:100380006668696B6D6F71737577797B7D7F81832B
:100390008587898A8C8E90929496989A9C9E9FA12C
:1003A000A3A5A7A8AAACAEAFB1B3B4B6B8B9BBBC4D
:1003B000BEBFC1C2C3C5C6C7C9CACBCCCDCED0D1C2
:1003C000D2D2D3D4D5D6D7D7D8D9D9DADADBDBDBBA
:1003D000DCDCDCDCDCDDDDDDDDDCDCDCDCDCDBDB5B
:1003E000DBDADAD9D9D8D7D7D6D5D4D3D2D2D1D0AF
:1003F000CECDCCCBCAC9C7C6C5C3C2C1BFBEBCBBAC
:10040000B9B8B6B4B3B1AFAEACAAA8A7A5A3A19F23
:100410009E9C9A98969492908E8C8A8987858381E7
:100420007F7D7B79777573716F6D6B6968666462C8
:10043000605E5C5A5957555351504E4C4A49474596
:100440004342403E3D3B3A3836353332302F2D2C37
:100450002A29282625232200AF00AE000000000034
:10046000000000000000000000000000000000008C
:100470000000000000000000000000000000007EFE
:100480000F00D4FFFFFFC70000007800000000004D
:100490000000002A2B2800000000000000000000DF
:1004A00000000000000029000000002C1E34202164
:1004B0002224342627252E362D3738271E1F2021AB
:1004C00022232425263333362E37381F040506070A
:1004D00008090A0B0C0D0E0F101112131415161724
:1004E00018191A1B1C1D2F3130232D350405060742
:1004F00008090A0B0C0D0E0F101112131415161704
:1005000018191A1B1C1D2F3130354C6152540055DF
:100510000056425F006000610057005C005D005EB5
:1005200000000059005A005B0000000000620063F8
:1005300000580049004A004B0061524C004D004EEB
:100540000000000000520000000000500051004F69
:10055000000000000000000000000021782B78203F
:1005600078010024782378000000002678257800A0
:1005700000000028782778000000000000007C00C0
:1005800000000009025B00030100A0FA090400005A
:1005900001030101000921110100012240000705AA
:1005A0008103080001090401000203000000092181
:1005B0001101000122220007058203200001070526
:1005C00003032000010904020001030000000921C7
:1005D0001101000122B60007058403200001120169
:1005E0000002000000085059698301000102000167
:1005F0000E03590061006D0070006100640000008E
:100600001E034D0061007400740069006100200049
:10061000440061006C002000420065006E00000094
:100620000403090407087F0807003E5B4F5B3E0098
:100630003E6B4F6B3E001C3E7C3E1C00183C7E3CDB
:1006400018001C577D571C001C5E7F5E1C000018A4
:100650003C180000FFE7C3E7FF0000182418000063
:10066000FFE7DBE7FF0030483A060E00262979292C
:100670002600407F05050700407F05253F005A3CC6
:10068000E73C5A007F3E1C1C0800081C1C3E7F00F3
:1006900014227F2214005F5F005F5F0006097F0164
:1006A0007F00006689956A0060606060600094A2C7
:1006B000FFA2940008047E04080010207E20100091
:1006C00008082A1C0800081C2A0808001E10101020
:1006D00010000C1E0C1E0C0030383E383000060E88
:1006E0003E0E060000000000000000005F00000059
:1006F000000700070000147F147F1400242A7F2ABB
:100700001200231308646200364956205000000886
:1007100007030000001C224100000041221C0000D1
:100720002A1C7F1C2A0008083E0808000080703040
:1007300000000808080808000000606000002010A1
:10074000080402003E5149453E0000427F4000003F
:100750007249494946002141494D33001814127F1E
:1007600010002745454539003C4A4949310041219F
:1007700011090700364949493600464949291E00F2
:1007800000001400000000403400000000081422A3
:100790004100141414141400004122140800020132
:1007A000590906003E415D594E007C1211127C0031
:1007B0007F49494936003E41414122007F41414144
:1007C0003E007F49494941007F09090901003E4136
:1007D000415173007F0808087F0000417F410000FD
:1007E0002040413F01007F08142241007F404040EB
:1007F00040007F021C027F007F0408107F003E4102
:1008000041413E007F09090906003E4151215E0039
:100810007F091929460026494949320003017F0111
:1008200003003F4040403F001F2040201F003F404A
:1008300038403F0063140814630003047804030085
:100840006159494D4300007F4141410002040810B5
:100850002000004141417F000402010204004040A9
:100860004040400000030708000020545478400036
:100870007F284444380038444444280038444428FD
:100880007F0038545454180000087E09020018A450
:10089000A49C78007F080404780000447D40000098
:1008A0002040403D00007F102844000000417F4070
:1008B00000007C04780478007C0804047800384444
:1008C00044443800FC182424180018242418FC0080
:1008D0007C080404080048545454240004043F4491
:1008E00024003C4040207C001C2040201C003C4058
:1008F00030403C004428102844004C9090907C00EC
:100900004464544C44000008364100000000770065
:1009100000000041360800000201020402003C26EB
:1009200023263C00000000000000404040F0F8F8A2
:10093000FF38FFF8F83FF8F8FF38FFF8F8F04040CC
:100940004000000000000080C0C0C0800000C0C0A7
:100950008000000080C0C000C0C0000080C0C00097
:1009600000000000C0C0C0C0C000C0C00000000047
:100970000000000000000000000000000000000077
:100980000000000000000000000000000000000067
:100990000000000000000000000000000000000057
:1009A000000000C0F0F8FC3E1E06010000007F4180
:1009B00041417F007F4141417F000080C0E07E5B7C
:1009C0004F5BFEC00000C000DCD7DEDEDED7DC00FF
:1009D000C000000000000000000000000000000057
:1009E00000000000000000000000494949FFFFFF2F
:1009F000FFE0DFBFBF00BFBFDFE0FFFFFFFF4949F0
:100A00004900000000001F3F6060E0BF1F007F7FC3
:100A1000071E381E077F7F007F7F0E1F3B7160001F
:100A2000000000007F7F0C0C0C007E7E007F7E03A8
:100A300003007F7E03037E7E03037F7E000F3E70F4
:100A40003C063C703E0F00327B49493F7E007F7E72
:100A50000303001E3F69696F2600000000000000CC
:100A6000000000030F1F3F3C7870600000007F41D2
:100A700041417F007F4141417F00307B7F783020C2
:100A80002030787F3B0003000F7F0F0F0F7F0F0098
:100A90000300000000000000000000000000000053
:100AA00000000000000000000000010101070F0F1E
:100AB0007F0F7F0F0F7E0F0F7F0F7F0F0F0701013B
:100AC0000100000000000000000000010100000023
:100AD0000000000000000000000000000000000016
:100AE0000000000000000000000000000000000006
:100AF00000000000000000000000000000000000F6
:100B000000000000000000000000000000000000E5
:100B100000000000000000000000000000000000D5
:100B200000000000000000000000000000000000C5
:100B300000000000000000000000000000000000B5
:100B400000000000000000000000000000000000A5
:100B50000000000000000000000000000000000095
:100B60000000000011241FBECFEFDAE0DEBFCDBFD2
:100B700025E0AAECB1E001C01D92A836B207E1F76A
:100B800011E0A0E0B1E0E8E7F4E602C005900D92C4
:100B9000AA3CB107D9F70E9433240C94D3310C94AA
:100BA0000000E8EDF0E080818E7F80831092E2000B
:100BB0001092DA001092E100A0EEB0E08C9181601A
:100BC0008C9380818F77808319BCA7EDB0E08C91E6
:100BD0008E7F8C9380818F7E808310922603089570
:100BE0002091E4003091E50095E6A9012091EC0008
:100BF000822F817020FF06C08091E80080FF06C030
:100C000080E008952091E80022FD1AC080914B03F6
:100C1000882389F0853089F08091EB0085FD0FC035
:100C20002091E4003091E50042175307F9F291500A
:100C3000E1F684E0089582E0089583E0089581E07C
:100C4000089580914D0387FF13C08091E80082FFD3
:100C500006C08091E8008B778093E80004C0809103
:100C60004B038111F2CF089580914B038823D9F370
:100C70008091E80080FFF8CF8091E8008E77ECCF7C
:100C8000982F9093E900242F762F50E0891731F0A8
:100C90007091EC002091ED005091F00021FD07C013
:100CA0009F5F973071F78093E90081E0089530915C
:100CB000EB003E7F3093EB003091ED003D7F3093B1
:100CC000ED003091EB0031603093EB007093EC005D
:100CD0002093ED005093F0002091EE0027FDE0CF2F
:100CE00080E00895B0E0A0E0E8E7F6E00C94682C1E
:100CF000C8EDD0E088818F7E8883E7EDF0E08081C9
:100D00008160808384E082BF81E0809326038881B4
:100D10008E7F888302EE10E0F80110821092DA00D4
:100D200081EEC82ED12CF601108288818F778883BE
:100D300088818068888388818F7D888319BC109220
:100D40004B0310924C0310924A031092490390EE09
:100D5000E92EF12CF70180818B7F8083888181606F
:100D6000888342E060E080E00E944006F6018081D6
:100D70008E7F8083F801808181608083808188609C
:100D80008083F70180818E7F808388818061888362
:100D9000CDB7DEB7E8E00C94842CFC0180915303BE
:100DA0009091540386179707A0F06115710529F4F7
:100DB0009091E8009E779093E80090E061157105AE
:100DC00051F4911108C08091E80082FF34C080E0A6
:100DD0000895BC01F2CF80914B038823C1F1853087
:100DE000C1F18091E80083FD30C08091E80082FD70
:100DF000EACF8091E80080FFE1CF8091F30020915D
:100E0000F200382F6115710519F02830310558F0BE
:100E100091E02830310509F090E02091E8002E772C
:100E20002093E800CBCF81918093F100615071094C
:100E30002F5F3F4FE7CF80914B03882341F08530F0
:100E400041F08091E80083FFBECF81E0089582E009
:100E5000089583E0089580912803089587E797E730
:100E6000909301088093000888E19AE00FB6F89407
:100E7000A895809360000FBE90936000FFCF2FB7BE
:100E8000F894609120037091210380912203909146
:100E900023032FBF0895209127012223C9F0209119
:100EA000240327FF15C0E62FE695E695E695EE317B
:100EB000D8F4E80FF92FF11D677021E030E001C090
:100EC000220F6A95EAF720958281282322830895CC
:100ED000FC01329608962191621303C0DF0111973D
:100EE0001C92E817F907B9F70895209127012223EA
:100EF000C1F02091240327FF14C0E62FE695E69564
:100F0000E695EE31F8F4E80FF92FF11D677021E056
:100F100030E001C0220F6A95EAF78281822B82833A
:100F20000895FC0132962FEF30E04191641751F0A3
:100F30002F3F19F4411101C0232F3F5F3630A9F72D
:100F40002F3F09F40895820F911D27FD9A95FC010A
:100F500062830895A3E0B0E0E0EBF7E00C946E2C20
:100F600020911D0330911E0328173907A1F090939B
:100F70001E0380931D03E0911B03F0911C03309727
:100F800051F024E029839B838A830680F781E02D3A
:100F9000CE01019609952396E2E00C948A2CA3E0F9
:100FA000B0E0E5EDF7E00C946E2C20911903309140
:100FB0001A0328173907A1F090931A038093190395
:100FC000E0911B03F0911C03309751F023E029833B
:100FD0009B838A830680F781E02DCE0101960995D7
:100FE0002396E2E00C948A2CE0911B03F0911C0301
:100FF000309729F00190F081E02D0995089580E067
:101000000895FA01811101C0FB0109950895089521
:1010100080910E0380FF02C08695089580E00895B8
:1010200080910E03982F9E7F29F4817082608093B7
:101030000E0308958635E8F381708465F8CFAF928A
:10104000BF92DF92EF92FF920F931F93CF93DF93A4
:10105000082F162FE901E42FF0E0EE5AFD4F611141
:1010600010C0E4915E2F4E2F4983E8835A83DF91AD
:10107000CF911F910F91FF90EF90DF90BF90AF90B5
:101080000895E62EF12C4491D42EE42FF0E026E0D2
:10109000829FC00111242FEF30E0B9010E944A2C39
:1010A000802F90E0880F991F55E5569FD001579FDC
:1010B000B00D11248A1B9B0B982F990F890F590192
:1010C000AE18BF08AE9ED001AF9EB00DBE9EB00D53
:1010D00011245B2F189F80011124012F1127590122
:1010E000A01AB10AAE9E8001AF9E100DBE9E100DDB
:1010F00011245901A81AB108AE9CC001AF9C900DF3
:10110000BE9C900D1124892F9927281B390B2E9FE7
:10111000C0012F9F900D3E9F900D1124E92F62304A
:101120007105A1F050F46115710509F49DCF61308E
:10113000710581F0EB2F512F97CF6430710569F065
:1011400080F06630710509F48FCFF4CFE42F4B2F78
:10115000592F8ACFE42F412F87CFEB2F542F492FC0
:1011600083CF4B2F5D2DE12F7FCF8091B00280FD8B
:1011700016C081FD16C082FD16C08091AF02882383
:10118000A1F0883280F428E0829FC001112468E237
:1011900070E00E94AF2C862F672B39F0089582E013
:1011A000089584E0089588E0089581E0089580918D
:1011B000B00280FD14C081FD14C082FD16C0809174
:1011C000AE02882381F08E3180F420E5829FC00139
:1011D00011246EE170E00E94AF2C862F089584E107
:1011E000089588E2089588E0089580E5089580E0F4
:1011F0000895F894E82FE295EF70F0E031A1282FE0
:101200002F7081E090E001C0880F2A95EAF7982FAF
:101210009095932391A392A1892B82A3789408950A
:101220009091240392FF06C0282F28712830F9F4EA
:10123000877F846093FF06C0282F28712831F1F43E
:10124000877E84612091250320FF06C0382F3871E6
:101250003830D9F4877F816021FF06C0282F28719C
:101260002831D1F4877E816194FD877E0895282FEF
:1012700024712430F9F68B7F8860DCCF282F24710D
:10128000243101F78B7E8861DDCF382F3171313009
:1012900019F78E7F8860E0CF282F2171213121F747
:1012A0008E7E8861E1CFCF93DF93EC018238910588
:1012B000B9F108F041C08133910509F49FC050F5A0
:1012C0008932910509F48FC08A9709F49EC0C1152F
:1012D00020E5D20708F0BDC0C11530E4D30708F0FF
:1012E0000AC1C03ED10508F0A5C0CD3CD10508F02B
:1012F00000C1C83AD10508F08FC0C53AD10508F041
:10130000F0C0C130D10539F1209729F1C430D105A1
:1013100010F546C08533910509F460C0C997B9F648
:1013200080912403837009F044C18091250383FFD9
:1013300012C0C9E2D0E00FC0833E9105A1F178F45C
:10134000803E910509F1823E910509F0C0CF809160
:10135000240382FD21C0CE01DF91CF910895863E06
:10136000910561F1873E910571F1843E910509F087
:10137000AECF8091250381FFEECF80912403C7EE8D
:10138000D0E084FD0DC0E7CF8091240380FD33C001
:101390009091250390FFDFCFC3EED0E084FFDBCF39
:1013A000D0E0C0E0D8CF8091240382FDFFC09091AF
:1013B000250390FDFEC084FFCECFF2CF80912403A1
:1013C00083FDDDCFC8CF8091240383FDF5C09091CC
:1013D000250391FFF0CFC4EED0E0BDCF8091240370
:1013E00085FFB9CFA6CF8091240385FDE8C0809109
:1013F000250383FFB0CFC9E3D0E0ADCF80912403B4
:1014000086FFA9CFCAE2D0E0A6CF8091240386FF51
:10141000A2CFC1E3D0E09FCFC13CD10508F6C85AA6
:10142000D0E0CC0FDD1FC45BDE4F0990D881C02D0A
:10143000D46491CFC11540E2D40708F0AAC0C11509
:1014400081E0D80708F087CFC83ED10508F483CFE4
:10145000A7CFC03622E5D20718F5C03432E5D3074E
:1014600008F053C0C03242E5D40708F047C0C115A8
:1014700082E5D80708F47FC02C2F2695269540E2F8
:10148000249F900111248C2F8370C1E0D0E002C012
:10149000CC0FDD1F8A95E2F7C22BD32BDD685BCF23
:1014A000C03A22E5D20760F4C03832E5D30708F429
:1014B00041C0CF71D0E0DC2FCC27C46FD06A4BCFB6
:1014C000C03C42E5D40708F44AC0C03E82E5D807D4
:1014D00008F066CFDC2FCC27CC27DF71C06FD06A35
:1014E0003ACFC55AD0E0C75BDE4FC881D0E0D064A8
:1014F00032CFD06530CFDF70D06A2DCFCF71D0E042
:10150000DC2FCC27C16FD06A26CF2C2F26952695AD
:10151000277080E2289F900111248C2F8370C1E0F6
:10152000D0E002C0CC0FDD1F8A95E2F7C22BD32B8F
:10153000DC6811CF2C2F26952695277040E2249F3A
:10154000900111248C2F8370C1E0D0E002C0CC0F39
:10155000DD1F8A95E2F7C22BD32BDA68FCCE8C2FE5
:101560008F710E941009C82FD0E0DC2FCC27CC2728
:10157000DF71D062F0CE8C2F8F710E94100935E0A0
:10158000D695C7953A95E1F7CF709C2FEC01D069BD
:10159000E2CE8D2F8F710E94100990E0982F88273E
:1015A00088279F719C012C2BE901E3CFC2EED0E08C
:1015B000D2CEC0EED0E0CFCEC6EED0E0CCCEC5E3EA
:1015C000D0E0C9CE8091510281111092510208954C
:1015D00080959091500298239093500208958091A5
:1015E0002D029091FC01981301C008958F5F8770C0
:1015F000FACF953080F5843070F544E0949F9001E7
:101600001124820F932F911D682F677023E0969508
:1016100087952A95E1F7FC01EE0FFF1FE80FF91FF0
:10162000E351FE4F50E040E080E0219130E0062E93
:1016300002C0369527950A94E2F721703327042ECD
:1016400001C0220F0A94EAF7822B4F5F5F4F4330AD
:10165000510559F7089580E00895953098F5843044
:1016600088F544E0949F90011124820F932F911DDF
:10167000282F277041E001C0440F2A95EAF723E0A4
:10168000969587952A95E1F7FC01EE0FFF1FE80F6D
:10169000F91FE351FE4F90E080E070E05191DF01CF
:1016A00011979B01082E02C0369527950A94E2F700
:1016B000217021952527242325272C9301968330FB
:1016C000910561F708958093580308958091580318
:1016D000982F9670963021F488600E94630B0895CD
:1016E000877FFBCF21E030E001C0220F8A95EAF727
:1016F00020958091580382230E94630B0895909156
:101700002E028095892380932E02282F277091F432
:10171000282F082E000C330B9217130659F09091C6
:10172000250392FF07C08595859585950E94720BCC
:1017300010922E02089521E030E001C0220F8A9518
:10174000EAF780915803822B0E94630B08958093DF
:1017500052020895982F92959F7011F0892F94E06E
:10176000282F2695269511F09E5F822F869509F0E9
:101770009F5F892F0895CF93DF93682F81E06A30B0
:1017800019F06D3031F480E00E94490CDF91CF9167
:101790000895809162059091630526E0FC01ACE517
:1017A000B5E001900D922A95E1F7603E08F458C02B
:1017B00026E0FC0111922A95E9F7C0916205D091CB
:1017C000630546E050E0BE018CE595E00E947C2E6A
:1017D0009E012C553340892B41F1C90145E0969576
:1017E00087954A95E1F741E050E0BA0102C0660FE3
:1017F000771F8A95E2F7CB0160915A0370915B03E2
:10180000862B972BB9016B5F7F4FE5E07695679547
:10181000EA95E1F702C0440F551F6A95E2F7842B61
:10182000952B90935B0380935A032A5F3F4F40911F
:101830005903642F70E0C9010E944A2C481B4630AE
:1018400010F4240F311D211572E0370710F030E03D
:1018500020E0245A3C4F309363052093620596CFD5
:10186000F6E06F9FB00111246C5D794F46E050E0C7
:101870000E943B2DA2CFCF93DF93EC01FE01849118
:10188000811103C0DF91CF9108950E94BB0B219677
:10189000F5CFCF93382FE0916205F0916305EC55B9
:1018A000F34020915903622F70E0CF010E944A2C2F
:1018B000281B822F332361F066E00E94952CC82FED
:1018C000C15010F4CF91089580E20E94BB0BF8CF75
:1018D0009F01280F311D2115324018F080E0F0E003
:1018E000E0E08E0F9F2F911D845A9C4F90936305CB
:1018F00080936205E7CF0E943B0C81E00E94490C77
:1019000008958091500290914F02892B8093CC01D1
:10191000909151029923A1F0892B8093CC01809161
:1019200027018823E1F18091240387FF38C08EE1ED
:10193000EEECF1E090E08150A0F591110E94E20AF6
:1019400040E250E06FE272E08CEC91E00E947C2E6D
:10195000892B21F180E2ECECF1E0AFE2B2E0019002
:101960000D928A95E1F7E0911B03F0911C033097EB
:10197000A9F080912701882359F08091240387FFE3
:1019800007C08091CC018093CD0186E08093CC018B
:101990000280F381E02D8CEC91E00995089586E0BA
:1019A000C7CF2191222339F29F5FC5CF882321F031
:1019B0000E94E80A0E94810C0895882339F09091D2
:1019C0005002982B909350020E94810C08950F931F
:1019D0001F93CF93DF93EC01FC0101900020E9F706
:1019E0008F0101501109C017D10728F0DF91CF9165
:1019F0001F910F91089589910E94BB0BF4CFB0E025
:101A0000A0E0E5E0FDE00C94682C6C017B0164E64D
:101A100070E088E70E94642BEC0197FD12C010E093
:101A200000E0F601E00FF11F849164E670E00E948F
:101A3000D02BEC01892B29F40F5F1F4F0E151F05CA
:101A400081F70E94462CCE01CDB7DEB7E8E00C94BA
:101A5000842C8091170390911803911103C091E099
:101A600089270895882369F062E070E089E594E0B1
:101A70000E94FF0C892B19F0809117030895109292
:101A8000170380911703EBCFCF93C0911703809179
:101A900018038823D1F00E943F07605A75418F4F89
:101AA0009F4F6093130370931403809315039093D7
:101AB0001603C11108C062E070E087E594E00E945F
:101AC000FF0C892B29F0C09117038C2FCF9108951B
:101AD00081E080931703F7CF0F931F93CF93DF938A
:101AE0008B01EA0190914B03943061F58093E900FA
:101AF0008FEF9091E800815095FD06C095ED9A9585
:101B0000F1F700008111F5CF8091E80085FF1AC040
:101B10000E94F005811111C08091E80085FD06C08A
:101B20008091E8008E778093E800F2CFF8018191F0
:101B30008F018093F100219779F78091E8008E77EB
:101B40008093E800DF91CF911F910F91089543E0BA
:101B500050E0BC0184E00E946C0D089546E050E026
:101B6000BC0184E00E946C0D0895CF93DF93EC01DB
:101B700080912701811111C048E050E0BE0181E051
:101B80000E946C0D80E2FE01A9E2B3E001900D928B
:101B90008A95E1F7DF91CF9108958091240387FF23
:101BA00005C040E284E050E0BE01EACF48E081E0B9
:101BB000FACF80910E0380FD0AC0E6ECF2E01182BC
:101BC00010821282339652E0E13EF507C1F7849A03
:101BD00031B33F7E21B320614FB7F89486EC92E099
:101BE000FC015191CF0168E021BB000000C057FF0C
:101BF00031BB550F000000C000C000C031BB00C0A9
:101C00006A9591F7F2E0813E9F0751F74FBF8FE54C
:101C100094E00197F1F700C000000895EF92FF9261
:101C20000F931F93CF93DF938C01C6ECD2E0F12C7E
:101C3000E12CF80194816091100380910F03F4E08E
:101C4000EF16F104ECF49923E9F09E0140911103A1
:101C50000E941F082FEFE21AF20A239689E0E81685
:101C6000F10439F70E94D90DF801848190E00196C2
:101C7000817099278483CDB7DEB7E6E00C94862C7B
:101C8000992319F39E0140E0E3CFB0E0A0E0EBE43C
:101C9000FEE00C94642CEC014C81042F10E09801C0
:101CA000D8010E94C4319B01AC010E948F314B01CD
:101CB0005C01E0E2F0E0E01BF10BA5E5B0E0AC0177
:101CC0009B010E948F316B017C019F01DF010E940B
:101CD000D02C9B01AC010E949A319B01AC01280DD4
:101CE000391D4A1D5B1DC701B6010E94A231F22EAB
:101CF000822F90E039E23F1598F143E0249F900154
:101D0000112435952795122F109596ECC92E92E047
:101D1000D92E00E085E5E82EEF188E2D01FD8F2DE0
:101D20009601412F609110030E941F080F5F53E03E
:101D3000C50ED11C093089F70E94D90D9C8181E024
:101D4000992319F0903219F48FEF80932601809136
:101D50002601890F8C83CDB7DEB7ECE00C94802C84
:101D600025E530E0A901481B590BCA019A01220F51
:101D7000331F280F391F37FFC4CF2F5F3F4FC1CF0D
:101D80000F931F93CF93DF93C6ECD2E0FE01118235
:101D900010821282339682E0E13EF807C1F710E02C
:101DA00000E08091C402082E000C990B0817190757
:101DB0008CF180912501082E000C990B801791075A
:101DC0004CF19E01409111036091100380910F032B
:101DD0000E941F080F5F1F4F23960930110509F756
:101DE0000E94D90D809124019091C402980F909384
:101DF000C40220912501280F20932501121614F406
:101E000098301CF0819580932401DF91CF911F9130
:101E10000F910895198218821A82DCCFB0E0A0E0F9
:101E2000E4E1FFE00C94672CFC018281DD24DA946C
:101E300080FD02C0DD24D39406EC12E0D0E0C0E0C7
:101E400029E0B22EF80111821082128294E0E92E6C
:101E5000F12CC12C8091C3028C0D8A30C4F16B2D02
:101E60000E94A12C892F082E000C990B8C179D071E
:101E700091F4809111038E9DA0018F9D500D11242E
:101E80005595479555954795980160911003809118
:101E90000F030E941F08CD0CF1E0EF1AF108D1F6F4
:101EA00021960D5F1F4FC930D10561F60E94D90DF3
:101EB0008091C30291E0D91210C081110CC088E05A
:101EC0008093C302CDB7DEB7E9E00C94832C87FF83
:101ED000CACF875FC8CF8150F3CF90E00196BE0193
:101EE0000E94AF2CEDCFEF92FF921F93CF93DF9321
:101EF000EC0186ECE82E82E0F82E10E08C81970150
:101F00004091110360911003810F0E941F08145E1D
:101F100083E0E80EF11C1C3F89F70E94D90D9A81DD
:101F20008C8190FF08C08F5F8C83DF91CF911F91D0
:101F3000FF90EF9008958150F7CF90910E0390FF9E
:101F40000CC0E6ECF2E0818360834283339692E03A
:101F5000E13EF907C1F70E94D90D0895A3E0B0E072
:101F6000E4EBFFE00C946C2C8C018091C502811194
:101F70000AC09E012F5F3F4F4FEF6FEF0E941F0877
:101F80008A818093C502F8016481613069F0809193
:101F9000C50240E0662361F040E0623011F44091F8
:101FA000C50280E060E004C06091C50240E080E0CE
:101FB0000E949D0FF801848190E0019663E070E03B
:101FC0000E94AF2C84832396E4E00C94882CA3E039
:101FD000B0E0EDEEFFE00C946E2C90910E0390FFBC
:101FE0000AC09E012F5F3F4F0E941F084B816981ED
:101FF0008A810E949D0F2396E2E00C948A2CCF9355
:10200000DF93EC01EEE0F3E0438162818C810E947A
:10201000E70F8C818F5F8C83DF91CF910895CF93F1
:10202000DF93EC01EC81F0E0E95AFC4F4491EEE0E3
:10203000F3E0628181810E94E70F8C818F5F8C8346
:10204000DF91CF910895CF93DF93C6ECD0E060E0AD
:10205000CE010E943C312196C11584E0D807B9F722
:10206000DF91CF9108951F93CF93DF93122F843088
:10207000E0F46530D0F44430C0F498E0699FE001AA
:10208000112450E0440F551FC40FD51F98E2899FBB
:10209000C00DD11D1124632FCE0186960E943C31C4
:1020A000612FCE0187960E943C31DF91CF911F9125
:1020B0000895B0E0A0E0EFE5F0E10C94662C8BE031
:1020C000C82E85E0D82E10E000E07601C0E017C0F1
:1020D00003301105B9F0F501259134914D2F6C2F86
:1020E000802F0E94331082E0A80EB11CDF5FD43035
:1020F00079F7CF5F88E0E80EF11CC53049F0570151
:10210000D0E0E6CF21E030E04D2F6C2F83E0E9CF27
:102110000F5F1F4F88E2C80ED11C04301105A9F6CD
:10212000CDB7DEB7EAE00C94822CCF93C82F6FEFC7
:10213000811163E282E290E00E943C316FEFC111B5
:1021400061E083E290E00E943C316FEFC11167E0F3
:1021500084E290E00E943C31CF91089580E00E949B
:10216000951060E085E290E00E943C310E94591099
:102170000E94231081E00E94951008950F931F93F1
:10218000CF93DF93843030F5653020F5443010F57F
:1021900028E0629F8001112450E0440F551F040F76
:1021A000151F38E2839F000D111D1124C80186966A
:1021B0000E942831C82FD0E0DC2FCC27C801879699
:1021C0000E9428319E01282BC901DF91CF911F91D8
:1021D0000F91089590E080E0F8CF462F753040F4DD
:1021E000643030F4843020F4672F0E94BE100895CC
:1021F00090E080E00895CF92DF92FF920F931F93BB
:10220000CF93DF936C010091580380915202082B09
:10221000C7E0D0E010E0FC2EC8010C2E02C095955E
:1022200087950A94E2F780FD0CC02197A0F7F12C66
:102230008F2DDF91CF911F910F91FF90DF90CF9065
:102240000895B6018C2F0E94ED100E94530901974A
:1022500061F3EECFCF93DF93EC010E94FB10BE0140
:102260000E94ED100E945309DF91CF910895FC0167
:1022700083819481892B29F08081918189238F3FEB
:1022800051F480E00895843FE1F717C0883EA8F03C
:10229000813FB9F712C0808191810E942A119295E5
:1022A0009F70963099F358F4925F9F70923048F780
:1022B000803F19F040F7883E20F781E008959A5F4B
:1022C000F4CF82E290E00E942831833289F483E2E5
:1022D00090E00E942831813059F484E290E00E941D
:1022E000283191E0873009F090E0892F81700895BE
:1022F00080E0FCCFB0E0A0E0E0E8F1E10C94602CDD
:10230000FC016280448081E08483E7E5F3E074901F
:10231000E6EDF3E0E491009111030695015810E019
:10232000000F111F012F1127C1EED2E026ECC22EA3
:1023300022E0D22E3EE0832E33E0932EAA24AA94EC
:10234000B12C55245A94E719EE2EF12C82E0861513
:1023500030F080910F0388838091100389834110AE
:1023600016C01B821A8296014A81698188810E9467
:102370001F08259683E0C80ED11C8C169D0631F7E8
:102380000E94D90DCDB7DEB7E0E10C947C2C8B8197
:102390008823E9F081508B83859DC00111246C81D5
:1023A00070E00E944A2CFB01FF27E95AFC4F849100
:1023B000E82FE719E59DC0011124B7010E944A2CBE
:1023C00080911103689FB00111247A83CCCF0E94C1
:1023D0002B2DB5010E94AF2C8017910724F682E0C7
:1023E000861588F40E942B2DB5010E94AF2C88839E
:1023F0000E942B2D209110032695622F70E00E94E1
:10240000AF2C280F29831A8280911103893C20F078
:1024100088EC8C838B83A7CF8431D8F784E1F9CF04
:10242000CF92DF92EF92FF926B017C010E94100825
:10243000B701A60188E090E00E944E31FF90EF9036
:10244000DF90CF900895A3E0B0E0E9E2F2E10C94D0
:10245000612CF82E762EE42E622E90910E0390FFC2
:1024600029C0E92FE695AE2FB0E0A157BE4F8C9161
:102470008093C1029E7F923009F59E012F5F3F4FEE
:102480008F2D0E941F084B8169818A810E949D0FB8
:10249000F0920F0370921003E0921103662051F046
:1024A00060910E0370910F038091100390911103BE
:1024B0000E9410122396EFE00C947D2C823019F4C8
:1024C000E0901103E5CF863019F4F0900F03E0CFD0
:1024D0008930D9F38931E1F6E9518E2F8170582E78
:1024E000E695F0E0EE5AFC4FE4910E2F10E086ECFA
:1024F000C82E82E0D82EB12CA12C99E0892E912CE7
:10250000C501B4010E944A2C8F2D511013C0860FB3
:1025100096014E2D672D0E941F08A00EB11E83E06C
:10252000C80ED11C81EEC81682E0D80649F70E9479
:10253000D90DAECF861BECCFEEE0F3E0438121E175
:10254000421B08F440E021E0628181810E94231255
:102550000895EEE0F3E0438121E1420F08F44FEFEC
:1025600021E0628181810E9423120895EEE0F3E070
:10257000628121E1621B08F460E021E043818181F6
:102580000E9423120895EEE0F3E0628121E1620FE0
:1025900008F46FEF21E0438181810E9423120895A6
:1025A000EEE0F3E0818121E04381628188500E9466
:1025B00023120895EEE0F3E0818121E043816281FE
:1025C000885F0E942312089580911203882319F0D6
:1025D00081508093120360910E0370910F038091DC
:1025E0001003909111030E9410120895809112031C
:1025F000833018F48F5F8093120360910E03709103
:102600000F0380911003909111030E9410120895FE
:10261000EEE0F3E083E0808311828FEF8283838397
:10262000148260817181828193810E9410120895C9
:1026300067EE7EEF90E080E00E945A3160E082E039
:1026400090E00E943C3160E083E090E00E943C31E9
:102650001092520260E074E184E090E00E945A31EE
:1026600060E086E090E00E943C316FEF87E090E010
:102670000E943C3140E050E0BA0188E090E00E94C6
:102680004E3160E08DE090E00E943C3140E050E04F
:10269000BA0188E190E00E944E3160E087E190E06D
:1026A0000E943C3140E050E0BA018CE190E00E9491
:1026B0004E3170E060E080E290E00E945A3140E0EC
:1026C00050E0BA0188E190E00E944E3180E00E9423
:1026D00095100E94AE1040E050E0BA018FE090E00B
:1026E0000E944E3140E050E0BA0183E190E00E9448
:1026F0004E3108959091250392FB222720F9281747
:1027000079F080FB92F990932503609124037091F6
:10271000250384E090E00E945A3182E00E947F0B02
:10272000089590E080E00E943631873E9E4F19F474
:102730000E946111089580E008951F920F920FB6D4
:102740000F9211242F933F934F935F936F937F9337
:102750008F939F93AF93BF93EF93FF938091E1008B
:1027600082FF09C08091E20082FF05C08091E100F4
:102770008B7F8093E1008091DA0080FF24C08091FC
:10278000D80080FF20C08091DA008E7F8093DA002D
:102790008091D90080FF9DC080E189BD82E189BD23
:1027A00009B400FEFDCF81E080934B0380912603A6
:1027B000811109C00E94D1050E9472068091E20039
:1027C00084608093E2008091E10080FF17C08091D7
:1027D000E20080FF13C08091E2008E7F8093E200D0
:1027E0008091E20080618093E2008091D800806255
:1027F0008093D80019BC85E080934B038091E10061
:1028000084FF2BC08091E20084FF27C080E189BD56
:1028100082E189BD89B5982F917080FFFBCF8091AF
:10282000D8008F7D8093D8008091E1008F7E8093C7
:10283000E1008091E2008F7E8093E2008091E200CF
:1028400081608093E20080914C03882309F447C0A3
:1028500084E080934B0380914B038091E10083FFE0
:1028600027C08091E20083FF23C08091E100877F31
:102870008093E10082E080934B0310924C0380919F
:10288000E1008E7F8093E1008091E2008E7F809353
:10289000E2008091E20080618093E20042E060E02B
:1028A00080E00E9440068091F00088608093F000F4
:1028B000FF91EF91BF91AF919F918F917F916F9118
:1028C0005F914F913F912F910F900FBE0F901F90EE
:1028D000189519BC10924B031092260374CF809167
:1028E000E30087FD93E090934B03B5CF78941F925C
:1028F0001FB61F9211248F939F93AF93BF93809124
:10290000200390912103A0912203B091230301960B
:10291000A11DB11D8093200390932103A093220356
:10292000B0932303BF91AF919F918F911F901FBED2
:102930001F9018959C014FB7F894809120039091B7
:102940002103A0912203B09123034FBF821B930B5D
:1029500008952FB7F8948091200390912103A091BE
:102960002203B09123032FBF089590910E0390FF8F
:102970002CC0917081112AC0926090930E0366233F
:1029800051F060910E0370910F03809110039091AC
:1029900011030E94101260910E03669570E04BE0E7
:1029A00050E089E191E00E946F2E892BB1F01092E6
:1029B000C20281E08093BE0220E040911103609149
:1029C000100380910F030E94231208958B3210F0A0
:1029D0009465D3CF880F982BD0CF81E08093C2022B
:1029E0000E94A9149093BC028093BB02E2CF809115
:1029F0000E038695815009F48AE261E00E94B514C5
:102A0000089580910E0386958F5F8B3208F081E0E8
:102A100061E00E94B5140895CF93DF93C82FD62F9D
:102A20000E9408088C1738F08D1728F40E940115B1
:102A3000DF91CF91089561E08C2F0E94B514F8CFFB
:102A40000E94A9149C019091B7028091B802982B22
:102A500021F03093B4022093B3029091B902809197
:102A6000BA02982B21F03093B2022093B102E09188
:102A70001B03F0911C03309749F082E08093B5026C
:102A80000480F581E02D85EB92E009950895109280
:102A9000500280912701EEECF1E0882329F180912A
:102AA000240387FF21C08EE1DF011D928A95E9F79B
:102AB00090E080E00E94CF0790E080E00E94AA07AB
:102AC00010924F020E94810C86E0E5EBF2E0DF01FC
:102AD0001D928A95E9F71092AE021092AF02109201
:102AE000B0020E942015089586E0DECFAAE2B0E091
:102AF000ECE7F5E10C946D2C8DE493E02091F1006E
:102B0000DC012D93CD01B3E085359B07B9F78091AA
:102B10004E03833009F472C0B8F4813009F449C01F
:102B2000823009F4B3C08091E80083FF8BC28091AA
:102B30004D0390914E039A3008F084C2E92FF0E0E3
:102B4000EB52FE4C0C94C32C8A3009F48EC08B30AF
:102B500009F471C0893039F780914D03813219F73A
:102B60008091510390915203009711F00297D9F68A
:102B70008091E800877F8093E8008091E80082FFE1
:102B800038C09091F3008091F200029731F4809167
:102B9000F100813011F0863021F48091F1008093B2
:102BA00028038091E8008B778093E8000E9421063B
:102BB000BACF80914D03813A09F0B5CF8091E800FA
:102BC000877F8093E8008091510390915203892B75
:102BD00061F460E289E293E070E00E94CD068091AA
:102BE000E8008B778093E8009ECF60E090E080E083
:102BF000F3CF80914B038111C0CF95CF80914D03CE
:102C0000813A09F090CF8091510390915203892B22
:102C100009F089CF8091E800877F8093E800809158
:102C2000E80080FFFCCF809127018093F100809124
:102C3000E8008E77B9CF80914D03813209F073CFD0
:102C40008091510390915203892B09F06CCF8091B0
:102C5000E800877F8093E8000E94210680914F035F
:102C6000809327010E9447155ECF80914D038132EA
:102C700009F059CF8091E800877F8093E8000E9497
:102C8000210680915003809327034DCF80914D03FF
:102C9000813A09F048CF8091E800877F8093E8006F
:102CA0008091E80080FFFCCF80912703BECF803861
:102CB00099F0823809F0C6C1809151038F70873036
:102CC00008F0C0C18093E9008091EB0085FB882764
:102CD00080F91092E90006C08091490390914A035F
:102CE000911182609091E800977F9093E800809323
:102CF000F1001092F1008091E8008E779FC1882347
:102D000009F48DC1823009F09DC180914F0381117A
:102D100090C1809151038F702FEF280F263008F05B
:102D200091C18093E9002091EB0020FF82C1933094
:102D300031F48091EB0080628093EB007AC1909136
:102D4000EB0090619093EB0021E030E001C0220F96
:102D50008A95EAF72093EA001092EA008091EB004E
:102D60008860EACF81116EC110914F031F77809167
:102D7000E3008078812B8093E3008091E800877FD7
:102D80008093E8000E9421068091E80080FFFCCF3C
:102D90008091E30080688093E30082E0111183E07A
:102DA00080934B034FC18058823008F04BC1209173
:102DB0004F03309150032C3DE3E03E07A1F583E043
:102DC0008A838AE289834FB7F894DE01139620E064
:102DD0003EE051E2E32FF0E050935700E49120FFF2
:102DE00003C0E295EF703F5FEF708E2F90E0EA3006
:102DF000C0F0C7968D939D932F5F243159F74FBF35
:102E00008091E800877F8093E8006AE270E0CE015D
:102E100001960E94CD068091E8008B778093E800B0
:102E200011C1C096E7CF8091510390915203432F77
:102E300055274330510509F44AC078F54130510512
:102E400009F47AC08BE590E0E3E8F5E04230510503
:102E500009F0F8C02091E800277F2093E800209136
:102E60005303309154038217930708F49C0140E008
:102E70002115310509F065C0411163C08091E8005A
:102E800082FDC9CF80914B03882329F2853019F246
:102E90008091E80083FFF2CFBECF4132510509F4A3
:102EA0003CC04232510509F0CDC08330910508F095
:102EB000C9C0FC01EE0FFF1FE354FE4F0190F081EB
:102EC000E02D86549E4FDC018C9190E01AC0332790
:102ED00021303105D1F02115310561F02230310565
:102EE00009F0B0C0E0EFF5E0E4918E2F90E0E0EF64
:102EF000F5E007C0E0E2F6E0E4918E2F90E0E0E23A
:102F0000F6E0009709F49EC0A5CFE0E0F6E0E4917A
:102F10008E2F90E0E0E0F6E0F4CF8330910508F0EA
:102F200091C0880F991FFC01ED53FE4F0190F08175
:102F3000E02D89E090E08ECF82E190E0EEEDF5E0CB
:102F400089CF80914B03882309F465CF853009F43C
:102F500062CF8091E80083FD5ECF8091E80082FD22
:102F60008DCF8091E80080FF83CF9091F300809116
:102F7000F2002115310519F08830910550F041E03B
:102F8000089709F040E08091E8008E778093E80090
:102F90006FCF44914093F100319621503109019651
:102FA000E8CF803809F04EC08091E800877F809399
:102FB000E80080914C038093F1009DCE811142C0C6
:102FC00010914F031230F0F58091E800877F8093D5
:102FD000E80010934C030E942106112311F084E0B5
:102FE00005C08091E30087FDFACF81E080934B0319
:102FF00042E061EC81E00E94400642E261EC84E044
:103000000E94400642E261EC82E00E94400642E2F9
:1030100060EC83E00E94400680914B0313C08091D6
:103020004F03813079F481E0933009F080E08093A0
:103030004A031092E9008091E800877F8093E800BE
:103040000E9421068091E80083FF0AC08091E80079
:10305000877F8093E8008091EB0080628093EB0093
:10306000AA96E3E00C94892C1F920F920FB60F9250
:1030700011242F933F934F935F936F937F938F937D
:103080009F93AF93BF93CF93DF93EF93FF93D09131
:10309000E900DF708091EC00C82FC17080FDC0E8AE
:1030A0001092E9008091F000877F8093F00078947F
:1030B0000E9476151092E9008091F000886080935C
:1030C000F000CD2BCF70C093E900FF91EF91DF911D
:1030D000CF91BF91AF919F918F917F916F915F91B0
:1030E0004F913F912F910F900FBE0F901F90189509
:1030F0000E9447152FEF84E39CE0215080409040D0
:10310000E1F700C0000088E19AE00FB6F894A895B6
:10311000809360000FBE90936000FFCF662309F498
:103120005DC08D3C41F40E94D70881958093B80220
:103130000E94201508958E3C19F40E94D708F6CFFE
:103140008F3C31F40E94D70881958093B702F0CF6D
:10315000803D19F40E94D708F8CF893D29F40E94D8
:10316000B5088093B902E4CF8A3D21F40E94B508E6
:103170008195F7CF8B3D31F40E94B50881958093FE
:10318000BA02D6CF8C3D19F40E94B508F8CF9FE261
:10319000980F983070F4815D990B21E030E001C008
:1031A000220F8A95EAF78091B602822B8093B602AD
:1031B000BFCF8D3D31F48091B00281608093B00229
:1031C000B7CF8E3D21F48091B0028260F7CF8F3D62
:1031D00009F0AECF8091B0028460F0CF4091B70289
:1031E0008D3C59F48091B80287FF0DC01092B8024F
:1031F00041110BC01092AE0208C08E3C81F4809148
:10320000B80218169CF3442381F08091B902909182
:10321000BA02892B09F08CCF1092AF0289CF8F3C74
:1032200049F447FFF0CF1092B7028091B8028111A4
:10323000ECCFE0CF803D19F41416ACF3E4CF9091BD
:10324000B902893D29F41916F4F61092B902DBCFC0
:103250008A3D19F497FFD7CFF8CF9091BA028B3DF2
:1032600029F497FFD0CF1092BA02CDCF8C3D19F43C
:103270001916CCF3C8CF9FE2980F983090F4815D77
:10328000990B21E030E0B90102C0660F771F8A95E3
:10329000E2F7CB0180959091B60289238093B60224
:1032A000B2CF8D3D31F48091B0028E7F8093B00219
:1032B000AACF8E3D21F48091B0028D7FF7CF8F3D54
:1032C00009F0A1CF8091B0028B7FF0CF882399F1D4
:1032D0009CEF980F913A40F4682F8CEC91E00E949B
:1032E0004B070E94810C089590E2980F983050F49B
:1032F000877091E001C0990F8A95EAF7892F0E94A3
:10330000E80AEFCF9BE5980F933028F490E080E037
:103310000E94CF07089598E5980F993128F490E01E
:1033200080E00E94AA07089593E3980F933118F460
:1033300060E00E948E180895CF93C82F8823D9F19A
:103340008CEF8C0F813AC8F580912701882311F109
:103350008091240387FF1EC0EC2FE695E695E69545
:10336000F0E0E453FE4F828190E04C2F477021E063
:1033700030E002C0220F331F4A95E2F782239323E5
:10338000892B91F06C2F8CEC91E00E944B070E94EE
:10339000810C0AC0EEECF1E084ED91E02191C217BE
:1033A00089F38E179F07D1F76C2F8CEC91E00E9468
:1033B00075070E94810CCF91089580E28C0F8830B0
:1033C00068F4C77021E030E001C0220FCA95EAF727
:1033D00080915002822B80935002EBCFEBE5EC0FF3
:1033E000E33040F4F0E0E75BFE4F808190E00E9424
:1033F000CF07E1CFE8E5EC0FE93150F4F0E0EE0F54
:10340000FF1FE45BFE4F808191810E94AA07D3CF0A
:1034100083E38C0F833178F661E08C2F0E948E1845
:10342000CACF1F93CF93DF93182FD0E0C0E089332A
:1034300011F4C0E5D0E0812F0E949C19209739F447
:10344000812F0E946619DF91CF911F9108958FE916
:103450009FE00197F1F700C000002197EFCF0F9395
:103460001F93CF93DF93C62FD42F022FFC018281AD
:103470008823A9F0609357030E94A91490935603E0
:1034800080935503C77081E001C0880FCA95EAF7A1
:103490000E94DD0CDF91CF911F910F9108958091D3
:1034A0005703681332C080915503909156030E94D0
:1034B0009A14883C910548F510E21D0FCD17B9F01C
:1034C00080E28C0F883040F4C77081E001C0880F23
:1034D000CA95EAF70E94D60C183048F481E09D2F77
:1034E000977001C0880F9A95EAF70E94DD0C802F33
:1034F0000E94111A183070F6D77081E001C0880F51
:10350000DA95EAF70E94D60CC5CFC77081E001C0FA
:10351000880FCA95EAF7F6CFB0E0A0E0E2E9FAE159
:103520000C94692CE82FF0E0E557FB4FD490282F3E
:1035300026952695269530E0F901E558FB4F049134
:10354000877010E0082E02C0159507950A94E2F7DF
:1035500001701127F901E559FB4FE490F12C082E79
:1035600002C0F594E7940A94E2F791E0E922FF247F
:10357000F901E55AFB4FC491D0E002C0D595C7953B
:103580008A95E2F7C170DD270115110519F081EE6A
:103590000E949C19E114F10419F086EE0E949C1916
:1035A0008D2D0E94111AE114F10419F086EE0E948B
:1035B00066190115110519F081EE0E946619CD2BCF
:1035C00019F08CE20E94111ACDB7DEB7E7E00C9437
:1035D000852CA8E0B0E0EFEEFAE10C94642C7C01BD
:1035E000DC0113968D919C911497892B39F08C9165
:1035F00011969C9189238F3F09F051C52896ECE0E4
:103600000C94802C0E94FB10182F682F89819A81BE
:103610000E942D0B69817A81812F0E94ED108C010F
:10362000F7018281882309F42FC59801225037477A
:103630002031310508F0F2C48FEF93E00E94283169
:10364000811183C0025076ECC72ED12C01114AC0E3
:10365000FE01339686E0DF011D928A95E9F76AE064
:10366000962E86010F5F1F4FC6010E942831898365
:103670001A82882309F469C0813009F079C05601A3
:10368000B2E0AB0EB11CC8010E9428318A838823A6
:1036900009F45BC09FEF980F933090F5E3E0CE0EF6
:1036A000D11CC5010E9428318B83882309F44DC0A9
:1036B0001C828E010F5F1F4FD8018C91882389F2E5
:1036C000813009F08EC011969C91119712968C91C1
:1036D000913009F04FC00E5F1F4F0E94111A0F5F0B
:1036E0001F4FEACFC114F4E0DF0679F1C6010E9452
:1036F0002831811101C001502FEFC21AD20AA6CF82
:1037000065018430B1F602E010E06501FFEFCF1AE9
:10371000DF0AC5010E942831E1E0F0E0EC0FFD1F57
:10372000E00FF11F8083882381F08C3741F4E2E0C1
:10373000F0E0EC0FFD1FE00FF11F1082BACF0F5F1A
:103740001F4F56010730110501F780912E02877037
:1037500009F454CFD70112968C91882309F44ECFE7
:103760008091250382FF4ACF82E00E947F0B46CFE3
:1037700068019FCF923029F40E5F1F4F0E949C1961
:10378000AECF933029F40E5F1F4F0E946619A7CF6A
:10379000943019F00F5F1F4FA2CF0E5F1F4F30E024
:1037A00020E0B8016F5F7F4FF80141818053990B92
:1037B0008A30910558F02150310908F490CF8FE9F3
:1037C0009FE00197F1F700C00000F5CF929EF00155
:1037D000939EF00D11249C012E0F3F1F842F8B010F
:1037E000E0CF0E948C1A7BCF81E00E949B0B0E944D
:1037F000660BABCF81E00E94720BF9CF82E0F5CF70
:10380000823049F46501F2E0CF0ED11CF6018491BB
:103810000E949C1934C4833049F46501F2E0CF0E54
:10382000D11CF60184910E94661929C4843009F0E4
:1038300026C46501F2E0CF0ED11CF601249190E080
:1038400080E0F60131962053330B2A30310550F0D9
:10385000019708F414C4AFE9BFE01197F1F700C075
:103860000000F6CF989EA001999E500D1124C90129
:10387000840F951F24916F01E4CF0E948C1A65017B
:10388000FEC3F801E851FC47E730F10510F5E152BD
:10389000FE4C0C94C32C26E241EE61EEC7010E945F
:1038A0002F1A53CF27E245EE65EEF8CF26E241EE20
:1038B00060EEF4CF27E245EE64EEF0CF26E241EE73
:1038C00062EEECCF27E245EE66EEE8CF28E241E07B
:1038D000EBCFD70112968C91882309F409C410927A
:1038E0005703C8019057839708F0ECC384E090E039
:1038F0000E9436319093250380932403F801E15010
:10390000F047E232F10520F4EA51FE4C0C94C32C4E
:103910008091240381608093240395C080912503C6
:103920008860809325038FC0809124038260F3CF49
:10393000809124038460EFCF809124038860EBCFD3
:10394000809125038160EDCF809125038260E9CFCE
:10395000809124038061DFCF809124038062DBCFDC
:10396000809124038064D7CF0E944715809124035F
:103970008068D1CF809124038C60CDCF80912503C6
:103980008360CFCF809124038E7FC5CF80912503A4
:10399000877FC7CF809124038D7FBDCF8091240383
:1039A0008B7FB9CF80912403877FB5CF809125038A
:1039B0008E7FB7CF809125038D7FB3CF8091240375
:1039C0008F7EA9CF809124038F7DA5CF8091240382
:1039D0008F7BA1CF0E944715809124038F779BCFC7
:1039E00080912403837F97CF809125038C7F99CF8B
:1039F0008091240382FB992790F921E0922790FB84
:103A000082F990FB83F987CF80912503982F9095B9
:103A100091708E7F892B90FB81F983CF9091240345
:103A2000892F8F7B96FF806476CF0E9447159091F7
:103A30002403892F97FB87F980586DCF61E08EE0D2
:103A400090E00E943C31609124037091250384E052
:103A500090E00E945A310E94471577CE60E0EFCF88
:103A600090912403892F8F7E94FF806154CF909191
:103A70002403892F8E7F90FF81604DCF9091250385
:103A8000892F877F93FF88604CCF80910E0380FF42
:103A900012C08E7F80930E0360910E0370910F030E
:103AA00080911003909111030E9410121092C20293
:103AB0000E94D90D4ACE816080930E0361E0869505
:103AC0000E94B51442CE47EF54E161E075E10E94D7
:103AD00001083BCE41E055E167EF74E1F8CF40EDDE
:103AE00052E16AED72E1F3CF4AED52E160ED72E12D
:103AF000EECF46EB52E163EC72E1E9CF43EC52E1E9
:103B000066EB72E1E4CF4CE952E169EA72E1DFCFA2
:103B100049EA52E16CE972E1DACF44EE52E166EF34
:103B200072E1D5CF46EF52E164EE72E1D0CF61E0B1
:103B300081E0C6CF65E082E00E940C1506CE68E009
:103B400086E0FACF6EE089E0F7CF64E18FE0F4CF52
:103B500067E185E1F1CF61E088E1B2CF62E289E11E
:103B6000EBCF61E083E2ACCF6AE285E2E5CF0E9471
:103B70004715BFEFE4E3FCE0B150E040F040E1F76F
:103B800000C000000E942E076FEF7FEF90E080E002
:103B90000E945A310E9478188091250382FB882761
:103BA00080F991E089270E947A13F70182810081D0
:103BB0001181882309F446C0C8010E94FB10D82E49
:103BC000682FC8010E942D0BB8018D2D0E94ED10A9
:103BD0000E9453098C01882ED7011296DC9012970F
:103BE0001596BC90B2943FE0B32280912E0287706C
:103BF000C1F0AD2CDD20B1F0812F807F803421F029
:103C000080E2800F883068F08091250382FF09C030
:103C100082E00E947F0B80912E028770AA24A394D9
:103C20008111A12C912E92942FE09222BBE0B91524
:103C300008F474C0E92DF0E0E85FFD4C0C94C32C4F
:103C400080E0B1CFC8010E94F90AD82EBDCFE12F84
:103C5000EF70CE2E107F19F0C29490EFC922DD20B4
:103C6000B9F0CC2069F080E2800F883010F081102C
:103C700009C080915002C82AC09250020E94810C53
:103C8000802F4AC080914F02C82AC0924F02F6CFBF
:103C9000802F0E946619CC2009F440C0005E0830D5
:103CA00010F0811004C08C2D0E94E80A06C0C09458
:103CB00080914F02C822C0924F020E94810C2EC0F8
:103CC000F12FFF70CF2E107F103219F0C29480EFC9
:103CD000C822882089F021E0821609F46CC0DD201A
:103CE00009F476C0BB2009F46CC0F701858180FF20
:103CF000C7CF8F70858365C02091250322FD34C016
:103D0000DD2061F1CC2039F080915002C82AC092A8
:103D100050020E94810C80E00E949C19A92DA8509D
:103D2000BB0B149710F40E94F407AA2009F466CC88
:103D300080912E0280FD62CCF701128285958595D7
:103D400085950E949B0BC7010E94E91A80912E0263
:103D50008595859585950E94720B50CC80E00E94D8
:103D60006619CC20D9F29FCFDD2099F090915102B5
:103D70008C2D892BB11003C00E94DD0CCFCF31E018
:103D8000B312FACF22FFCACF981741F280935102A3
:103D9000C5CFB11006C00E94E20A8C2D0E94D60C3D
:103DA000BDCF81E0B81609F4B9CF8C2D0E94D60C96
:103DB0000E94E20AB3CFDD2031F095E09B1508F4B4
:103DC000ADCF8C2DD9CFA4E0AB1508F4A7CFE5CFAC
:103DD000BB2019F3F9E38F1209C02FEF37EE83E010
:103DE000215030408040E1F700C00000802F0E9449
:103DF000661994CF812F86958695837061F0813006
:103E000009F08CCFC8019370D11002C080E090E01F
:103E10000E94AA0783CFC8019370D11002C080E02E
:103E200090E00E94CF077ACF6D2D802F0E948E18D0
:103E300075CF812F837089F5D11070CF402F4295B7
:103E400046954770440F440F802F8F70042E01C099
:103E5000880F0A94EAF7202F207104FF07C02FE093
:103E600030E001C0220F4A95EAF720951695169585
:103E70001370123069F050F430915202113029F071
:103E8000822B83230E94A70B49CF832B822BFACF4F
:103E9000282B809152028227F5CF8695DD2011F0E4
:103EA000812F8170882309F439CF402F42954695A0
:103EB0004770440F440F802F8F70042E01C0880F6D
:103EC0000A94EAF7202F207104FF07C02FE030E0AA
:103ED00001C0220F4A95EAF72095169516951370A2
:103EE000123069F050F430915803113029F0822BD0
:103EF00083230E94630B12CF832B822BFACF282BB4
:103F0000809158038227F5CF1F70DD2029F0812F83
:103F10000E949B0B802F30CF802F0E94D60C812FC8
:103F20000E94720BFBCE802F92EF8916B1F198158B
:103F300070F0A0EF8A16D1F0B1EF8B1691F0DD2072
:103F400009F45CC0B1109CCE812F8F712AC0E3EFC1
:103F50008E1651F1F4EF8F12F2CF8091250382FD7E
:103F60002FC0812F8F71DD20D9F21BC0DD2081F0A1
:103F700024E02B1508F4D2CE1F7181E090E0012ED1
:103F800001C0880F0A94EAF7909158038927B1CFAE
:103F900035E03B1508F4C2CEEFCF812F8F71D110E1
:103FA000BFCF0E949B0BBACE80E0DD2009F4A1CFE9
:103FB0001F7181E0012E01C0880F0A94EAF799CFA2
:103FC000DD2089F01F71812F0E949B0B80912503BA
:103FD00082FF07C0A8E01A9FC0011124836080936C
:103FE0002E02812FDECF81E00E947F0BB1E0BB1556
:103FF00008F094CE82E00E947F0B90CEBB2059F057
:10400000893309F0F3CEEFEFF7EE23E0E150F04013
:104010002040E1F7E9CE812F8F7182CF0115F7E7BC
:104020001F0709F4E1CB013027E7120709F4E6CBBB
:104030000115AEE71A0709F024CC882309F449CC0E
:1040400044ECA42E41E0B42E5AE0952EF501849163
:10405000882309F43ECC813009F00FCC6501FFEFD5
:10406000CF1ADF0AF6018491813009F0C9CB6501CE
:10407000F2E0CF0ED11CF60184910E94111A560174
:10408000EFEFAE1ABE0AE2CF011537E7130709F4C6
:10409000B1CB013097E7190759F682E0ACCB85E048
:1040A000F701DE01119601900D928A95E1F7D70193
:1040B00012962C9189819A812111A4CA0E94F90A31
:1040C000182FA8CA0631BCE71B0701F580915002E2
:1040D0008A7A91E009F490E09093EC0169E2811111
:1040E00065E38CEC91E00E9475070E94810C2DCB5A
:1040F0000631ECE71E0751F58091EC0169E2811170
:1041000065E38CEC91E00E944B07EFCF0330FCE7B6
:104110001F0709F439CD50F401153CE7130709F4E2
:1041200026CD01301C4709F435CD3FCD0B359CE73A
:10413000190709F485CD0C35ACE71A0709F42CCD25
:104140000A351C4709F031CD81E02DCD8091500218
:104150008272F801E052F847E531F10508F025CD0B
:10416000EC5EFD4C0C94C32C1F93CF93DF93809196
:10417000FB01807F09F049C08091F801882309F490
:1041800044C080912D02D091FC016091F6017091A4
:10419000F701A091F901B091FA01C62FC72316E0EB
:1041A000D81799F190E0109711F0CF3F19F40196CC
:1041B0008770F6CF189F9001199F300D1124F901D7
:1041C000E350FE4F41814713F2CF40814613EFCFBA
:1041D00042814111ECCF438154814A1B5B0B483C27
:1041E000510528F78091FB018F7080618093FB015E
:1041F000F901EE5FFD4F80818F708061808386EFD3
:1042000091E00E94E91A0E94EF0ADF91CF911F917D
:104210000895A1E1B0E0EFE0F1E20C94662C8C018E
:1042200085E0F801DE011D9601900D928A95E1F777
:10423000F801E28086EFA82E81E0B82E6091F901A6
:104240007091FA016115710509F426C19091F6018A
:104250004091F701892F84238F3F09F41DC12081EC
:104260003181C380D480F090F801F601E61BF70B92
:10427000FF2009F4DCC08091FB01582F507FE83CFF
:10428000F10508F09FC051116BC0FE2C431314C000
:10429000921312C0E11010C08F7080618093FB01F7
:1042A000C5010E94E91A8091FB01F80185838F2DD9
:1042B0006196EAE00C94822CC114D10429F0822F7B
:1042C00083238F3F09F003C180E0F82FF170DF2EC8
:1042D00080FF3CC080912D024091FC0156E0841388
:1042E00015C02D873E878D859E850E942A11292F16
:1042F00022952F702230F0F0243018F59F70F1F0E5
:10430000F8019581907FD1F4D12C1EC090E0589F88
:10431000F001599FF00D1124E350FE4F61813613D7
:1043200006C06081261303C06281E6120FC00196A9
:104330008770D5CF9F7011F0882331F3805E88306D
:1043400018F3C8010E94E91AFD2CB1CFEE2009F440
:10435000AECF8091FB0181608093FB01F12CA7CF50
:10436000431306C0921304C0F801EE2009F479C08B
:10437000C8010E943711882309F1EE20F9F08091DD
:10438000FB01803270F02091F6013091F7013887FF
:104390002F831986DB86CA868C87CE0107960E94FA
:1043A000E91A86E0F801A6EFB1E001900D928A9536
:1043B000E1F70E94B420FF24F39479CFC8010E9452
:1043C000E91AF9CF51110AC086EF91E00E94E91A6B
:1043D00086E0F50111928A95E9F7C0CF43130FC02B
:1043E00092130DC0E1100BC0F8018583C8010E9433
:1043F000E91A86E0F50111928A95E9F758CFC801CC
:104400000E9437118823D1F2EE20C1F28091FB0186
:10441000803238F22091F6013091F7013A832983F6
:104420001B82DD82CC828E83CE010196B8CFE83C20
:10443000F105F8F6FE2CEE2009F243131FC092138B
:104440001DC08091FB0180FD10C0982F907F69F006
:10445000F8018583903F31F0982F907F905F8F70A7
:10446000892B8583C8010E94E91A86E0F801A6EF2E
:10447000B1E001900D928A95E1F719CFC8010E9431
:10448000371181118ECF8091FB0181608093FB01F8
:10449000C8010E94E91A0BCFEE2009F48FCFC801A2
:1044A0000E943711F82E882309F488CF86E0F8019E
:1044B000A6EFB1E001900D928A95E1F78091F601A7
:1044C0009091F7010E942A110E94B420F0CE81E061
:1044D0008E25FBCEA7E1B0E0E0E7F2E20C946D2C74
:1044E0004B8B5C8B6D8B7E8B8F8B611110924F028F
:1044F0001A8A198A85E0FE017396DE011D960190E5
:104500000D928A95E1F786E0FE013D96DE01179651
:1045100001900D928A95E1F7CE0107960E9409213C
:10452000882359F016E080912D029091FC018913A7
:1045300043C06796E3E00C94892C86E0FE01379631
:10454000DE01119601900D928A95E1F78A859B858F
:10455000892B41F38F81988589238F3F19F320910F
:10456000FC0130E0C90101968770992740912D0226
:104570004817190671F40E9447151092FC01109219
:104580002D0286E0E6EFF1E0DF011D928A95E9F762
:10459000C9CF96E0929FD001939FB00D1124A350F4
:1045A000BE4FFE01319601900D929A95E1F78093EE
:1045B000FC010E94EF0AB6CF819FC00111248350F5
:1045C0009E4F0E940921882309F4B3CF80912D02C8
:1045D00090E001968770992780932D02A4CFA5E0E3
:1045E000B0E0E5EFF2E20C94652C8E010F5F1F4FF7
:1045F00085E0F80111928A95E9F72EE7C22E21E0B5
:10460000D22EF12CE12CAA24A394B12CF601819195
:104610006F018F3F09F443C0F894E82FE295EF70E3
:10462000F0E021A18F70A50102C0440F551F8A95AB
:10463000E2F7CA01922F982B91A392A1809589232A
:1046400082A3789400C0E3E8F1E0912C31E021915D
:104650002F3F09F4D3C0A22FA295AF70B0E090967F
:104660008C9190E02F7002C0959587952A95E2F77E
:1046700080FDC4C0832F982A330F51E0E738F50737
:1046800031F7F601319780818F3F11F00E94F908D0
:1046900080EA8A95F1F7F801EE0DFF1D9082EFEFA9
:1046A000EE1AFE0AF5E0EF16F10409F0AFCF45E08F
:1046B00050E0B8018AE592E00E947C2E7C01892BB3
:1046C00041F085E0F801AAE5B2E001900D928A95EB
:1046D000E1F71092570210915602112309F497C086
:1046E0000E94A9142091540230915502AC01421B42
:1046F000530B9A0190935502809354024F3F5105FA
:1047000011F008F07DC0452B39F11092560210923D
:1047100053026091580270915902AB014C5F5F4F98
:10472000685E7F4F90E030E0FA0134978081882303
:1047300029F0281708F467C01082912F3196E417EA
:10474000F507A1F7AF014C5F5F4F4617570761F7B9
:104750003093560290935302E114F10469F480916E
:104760005302882309F444C0111106C00E94A91401
:1047700090935502809354026091580270915902AF
:1047800000915602AAE5B2E049EA52E010E0EE24B8
:10479000E394F12C92E0B92E9D91FA018191AF0141
:1047A0009827FB0130E020E06701022E02C0CC0C0C
:1047B000DD1C0A94E2F7A92EAC2039F0A080A110EC
:1047C00004C0B0828C2511E001E031962F5F3F4F8D
:1047D0002430310549F76C5F7F4FFA0131978083B0
:1047E000F2E0AF35BF07C1F60093560210935702AF
:1047F000809157022596EBE00C94812C80E03BCF12
:104800002FEF30E082CF821B8083312F97CFE114CE
:10481000F10409F4A4CFAACF1F921FB61F9211244E
:104820008F939F93AF93BF9380911F03811113C008
:104830008091200390912103A0912203B091230342
:104840004196A11DB11D8093200390932103A09355
:104850002203B0932303BF91AF919F918F911F903B
:104860001FBE1F901895CDB7DEB7AD970FB6F89461
:10487000DEBF0FBECDBF85B7806885BF85B78068B6
:1048800085BF84B7877F84BF0FB6F894A8958091C1
:104890006000886180936000109260000FBE80E825
:1048A00090E00FB6F89480936100909361000FBE82
:1048B00087EF98E09093CB018093CA010E94D105C5
:1048C0000E9472068091E20084608093E2007894F6
:1048D00080914B038823A1F01091E9001F70909103
:1048E000EC00892F817090FD80E8182B1092E90070
:1048F0008091E80083FD0E9476151F701093E900F7
:1049000082E084BD93E095BD9AEF97BD80936E00E1
:104910000E946111811102C00E94AE100EE711E0E9
:10492000D8018D918D018F3F11F00E94F908B1E0FF
:1049300003381B07A9F781E30E94F90883E30E946B
:10494000F90882E30E94F90886E30E94F90885E0ED
:10495000E9EAF2E0DF01282F1D922A95E9F7EAE55E
:10496000F2E0DF011D928A95E9F784E190E00E9470
:10497000442DAC01909359028093580230E020E01E
:10498000FA01E20FF31F90E011929F5F9430E1F77C
:104990002C5F3F4F2431310599F70E94911381110B
:1049A00002C00E94181382E090E00E942831809398
:1049B000620284E090E00E94363190932503809358
:1049C00024030E94EF22EFE7FEE33197F1F700C0E6
:1049D00000000E94EF228091A90280FF08C06FEFC3
:1049E0007FEF90E080E00E945A310E942E0783E022
:1049F00090E00E9428310E94A70B83E08093A602DA
:104A000080E2809359030E945E2B6DE070E08AED96
:104A100091E00E94FF0C892BE9F58091A60263E0EA
:104A200070E081FDCFC087ED91E00E94FF0C892BE3
:104A300089F56DE070E087EC91E00E94FF0C892B16
:104A400049F50E943F07605A75418F4F9F4F609311
:104A50001303709314038093150390931603ECE5EE
:104A6000F3E080E092E0DF019C011D922150304094
:104A7000E1F7F0936305E09362058FEF9FEF90936A
:104A80005B0380935A0381E080931803809317039C
:104A90001092A70280915F02811133C00E9491138E
:104AA000811104C00E9418130E94081388E090E04E
:104AB0000E94303160930E0370930F0380931003B4
:104AC000909311036E7F71F40E94081388E090E0C8
:104AD0000E94303160930E0370930F038093100394
:104AE000909311030E9410081092C20280910E034D
:104AF00080FF04C060E086950E94B51481E0809339
:104B00005F028AE091E090931C0380931B0368E1AD
:104B1000862E912C89EA92E035E0380F3BA78091F0
:104B20004B0350E4F52E00E112E1853009F482C018
:104B30000E94EF2233E6A32E32E0B32E49EAC42EC0
:104B400042E0D42ED601F50191918D9162E0E836D4
:104B5000F60709F479C09817B9F310E0D6010D9162
:104B60006D01F50181915F01801721F1782E70268A
:104B7000F12CEE24E394872D8E21A1F0FEA21FA339
:104B800091E0802F8E2109F490E098A70E94A9144B
:104B90008160782F9AA789A74EA15FA168A58AA5F1
:104BA0000E946A22F394EE0CF4E0FF12E4CFF501C8
:104BB000319700831F5F153089F60E943F07DD247F
:104BC000D39463C084ED91E030CF80914B03843067
:104BD00019F10E94290D10921F030FB6F894A895A1
:104BE000809260000FBEF092600083B7817F846086
:104BF00083BF83B7816083BF7894889583B78E7FA6
:104C000083BF0FB6F894A895809160008861809367
:104C10006000109260000FBE80914A03882351F01B
:104C20000E94EF22E9EAF2E0819181111EC54BA5B5
:104C30004E13FACF80914B03853009F4C6CF0E9402
:104C400047150E94F40774CF981387CF0E94A914C8
:104C50008C01809160029091610208171907A1F000
:104C60008FEF89A38AA31BA20E94A9148160782FC9
:104C70009DA38CA349A15AA16BA18DA10E946A2278
:104C80001093610200936002D12C8091C2028823AC
:104C9000D1F18091C102E0910E03E695E81BE0930B
:104CA000BD02823009F04EC0F0E0E850FE4FE491C2
:104CB0000E2F10E02FE0E22E20E1F22E8091BE02B6
:104CC000882361F01092BE020E94A9149093BC0246
:104CD0008093BB021092C0021092BF020E94A914DE
:104CE000E091BB02F091BC028E1B9F0B8F3F9F4750
:104CF00050F4E00FF11FF093BC02E093BB028BEB8A
:104D000092E0F701099580911803882309F40DC1F9
:104D10008CE593E090936305809362058CE492E0C8
:104D20000E943B0C809158030E94AA0B813009F429
:104D300004C2882309F472C0823009F401C288E3F6
:104D400092E06EC0863059F4F0E0EB50FE4FE491F3
:104D50000E2F10E09FEFE92E9FE0F92EAFCF8930A4
:104D600061F4E695F0E0EE50FE4FE4910E2F10E076
:104D700083E7E82E8FE0F82EA1CF8F3061F4E6951F
:104D8000F0E0E151FE4FE4910E2F10E0BEE0EB2E7B
:104D9000BFE0FB2E93CF853159F4F0E0E451FE4F94
:104DA000E4910E2F10E0A0ECEA2EAEE0FA2E86CFB2
:104DB00008E210E075E4E72E7EE0F72E883109F472
:104DC0007DCF833249F4EAEEF1E005911491FEEAD9
:104DD000EF2EFFE0FF2E72CF04EF11E06EE0E62E23
:104DE0006EE0F62E843209F469CF00ED17E057E04B
:104DF000E52E58E0F52E853209F060CF8E2F63E066
:104E00000E94952CE92FF0E0E951FE4FE4910E2F1E
:104E100010E0EAE7EE2EE1E1FE2E50CF87E492E0CB
:104E20000E947B0C0E94F407182F82E392E00E94FC
:104E30003B0C8CE292E00E943B0C80E292E010FF7F
:104E400002C086E292E00E943B0C84E192E011FFF6
:104E500002C08AE192E00E943B0C8CEF91E012FFCD
:104E600002C082E092E00E943B0C8EE092E00E9441
:104E70003B0C88E092E00E943B0C8091110321E101
:104E8000622F0E94952CF82E809110030E94952C81
:104E9000082F10910F031695169516950E94080875
:104EA00090910E0390FD4FC19EE21F92FF921F92C0
:104EB0000F931F921F931F928F931F929F9388E2CD
:104EC00091E09F938F931F928DE18F9388E692E0FC
:104ED0009F938F930E94892E88E692E00E94E70CB0
:104EE0000FB6F894DEBF0FBECDBF80915A039091EC
:104EF0005B03892B09F029C1809117038823A9F04E
:104F00000E943F0700911303109114032091150391
:104F100030911603601B710B820B930B6F3F7F4F19
:104F20008F4F9F4710F40E94290DD1100E94440D0D
:104F300086E0E5EBF2E0DE01119601900D928A9594
:104F4000E1F71092B7021092B8021092B9021092D3
:104F5000BA028B819C81892B09F44AC08091B302EB
:104F60009091B4020E949A149C019091AE029923F0
:104F700009F49FC325313105D8F19F3F19F09F5F98
:104F80009093AE021B81112359F00E94D7089FEF26
:104F900011160CF491E0899F802D11248093B702A3
:104FA0001C81112359F00E94D7089FEF11160CF4B1
:104FB00091E0899F802D11248093B8023091B7022F
:104FC0003323B1F02091B802222391F045EB340352
:104FD000C0011124992309F493C19093B70265EBA2
:104FE000260390011124332309F48EC13093B802B3
:104FF0008D819E81892B09F44AC08091B1029091E4
:10500000B2020E949A149C019091AF02992309F474
:105010004BC321353105D8F19F3F19F09F5F909325
:10502000AF021D81112359F00E94B5089FEF1116A0
:105030000CF491E0899F802D11248093B9021E8188
:10504000112359F00E94B5089FEF11160CF491E05E
:10505000899F802D11248093BA023091B9023323A5
:10506000B1F02091BA02222391F045EB3403C00144
:105070001124992309F44CC19093B90265EB2603DE
:1050800090011124332309F447C13093BA0246E05A
:1050900050E0BE016F5F7F4F85EB92E00E947C2E57
:1050A000892B61F48091B7029091B802892B90917D
:1050B000B902892B9091BA02892B11F00E94201518
:1050C00086E0FE013196A5EBB2E001900D928A9543
:1050D000E1F70E94F4079091A802891721F08093CC
:1050E000A8020E943F0780914B03843009F017CD3E
:1050F00083E08093E9008091E80082FF10CD8091E9
:10510000E80090E085FF06C00E94F005882309F4BE
:1051100007C191E08091E8008B778093E8009923A4
:1051200009F4FDCC8981EFEFE80FE33108F01FC1EE
:10513000F0E0E75DFD4C0C94C32C82E492E070CE6D
:105140008DE392E06DCE9AE2B0CE80911803882371
:1051500009F4D2CE8091A7028111CECE0E94440DD7
:1051600020915A0330915B032115310509F4C4CE17
:1051700080E041E050E0082F10E07A01082E02C0E4
:10518000EE0CFF1C0A94E2F7B70162237323672B2E
:1051900011F48F5FF0CF9091A60290FF98C0880F16
:1051A000880F880F8093140110921701895F8093F4
:1051B000150183E08093180124E630E047E050E0D9
:1051C00062E171E088E70E94FE2B892B09F094CE02
:1051D000A80195E0440F551F9A95E1F78091A6022A
:1051E00080FF87C0E6E8F2E080E2DF011D928A9549
:1051F000E9F7EBE8F1E0FDA7ECA707E811E087E0AD
:10520000282E33243394ACA5BDA58D91BDA7ACA7A2
:10521000F80121918F01240F352F311D245A3C4F65
:10522000E82FF0E0EA57FD4F90E080E0522C581A4A
:10523000632C082E01C0660C0A94EAF75901712C00
:10524000D501CD905D01C620652D67196770462E8A
:10525000062E000C770BBC2D01C0BB0F4A94EAF759
:105260007195619571096770772701C0C6946A9539
:10527000EAF7CB2A6081462E4C284082739468E07E
:105280007612DECF019631968830910579F68CA59D
:105290009DA58F58914009F0B6CF04E610E020E2BA
:1052A00030E046E852E060E488E70E941F2C892B3A
:1052B00009F022CEE094F09480915A0390915B0320
:1052C000E822F922F0925B03E0925A0315CE829510
:1052D000880F80768093140198013695279536952E
:1052E000279520931701815E809315011092180174
:1052F00063CF445A5C4F04E610E020E230E0D3CFA5
:1053000081E08093B7026BCE81E08093B80270CECB
:1053100081E08093B902B2CE81E08093BA02B7CE29
:1053200000E210E0CE0101967C018091E80085FD4D
:105330000AC08091E8008B778093E8000E94F00516
:10534000882399F3E6CE8091F100D7018D937D01FA
:105350000150110951F7DDCE1A828BE08B8322C0F8
:105360008A81823009F497C128F4813021F18FEFCE
:10537000898318C0833039F08430C9F71B821C82BE
:105380001D821E820FC08091A9028B838091AA0288
:105390008C838091AB028D838091AC028E8380914F
:1053A000AD028F8340E250E0BE016F5F7F4F82E02D
:1053B0000E946C0DB4CB0E943F070E94C92C6B83E6
:1053C0007C838D839E83EECF8A81823081F085300D
:1053D00071F680910E0380FF15C080910E038E7FC1
:1053E00080930E031092C2020E94D90DDBCF6B8115
:1053F0007C818D819E810E94C92C85E290E00E9473
:105400003C31D0CF816080930E0360E086950E948E
:10541000B514C8CF4C816B818A810E94BE10982739
:10542000892798279E838D83BDCF2D813E8132278A
:10543000232732274C816B818A810E943310B2CF9F
:105440000E945910AFCF9A81923009F090CF8830E6
:10545000D9F1893009F464C08B81823009F1A8F454
:10546000813009F09FCF8C81BFEF8B9FC001112449
:105470006FEF70E00E944A2C462F20E060911003ED
:1054800080910F030E9423128DCF8330C9F08430A6
:1054900009F088CF20E0409111036D818C81F2CF1B
:1054A0008C81882309F499CF80910E0381608093C9
:1054B0000E0360E086950E94B51460E08C81A7CF52
:1054C0008C81809312036ECF8B818230E1F078F46F
:1054D000813009F067CF80911103EFEF8E9FC001FB
:1054E00011246FEF70E00E944A2C6C835BCF8330F5
:1054F000A1F0843009F056CF80910F038C83809106
:1055000010038D834FCF80910E0380FF04C00E9453
:1055100008088C8347CF80E0FCCF80911203F9CF3D
:1055200060910E0370910F0380911003909111030D
:105530000E94101237CF80E18A8334CF83E08A83C0
:105540008AE30CCF0A811B811027012710279E01B7
:105550002F5F3F4F7901CC80C9018C0D911D6C01EB
:10556000C8018A539F4FEC14FD0409F41BCF0A3382
:10557000A3E01A0750F40E942831F70184830F5FDB
:105580001F4FBFEFEB1AFB0AEBCFD70114961C920B
:10559000F6CF0A811B81102701271027FE013196C3
:1055A0006F01EC80E00EF12EF11CC8018A539F4F71
:1055B000E016F10609F4F6CE0A33F3E01F0728F4EB
:1055C000D60114966C910E943C31BFEFCB1ADB0AD6
:1055D0000F5F1F4FEACF0E942310E4CE84E0ACCFD0
:1055E0000A811B81102701271027FE0131967F01B8
:1055F000CC809F012C0D311D6901C8018696CE1407
:10560000DF0409F4CFCE003A110558F40E94283186
:10561000D70114968C930F5F1F4FFFEFEF1AFF0A0D
:10562000ECCFF7011482F7CF0A811B8110270127E5
:1056300010279E012F5F3F4F6901EC80E00EF12E95
:10564000F11CC8018696E016F10609F4ABCE003ACB
:10565000110528F4D60114966C910E943C31BFEFDD
:10566000CB1ADB0A0F5F1F4FECCF09BD19BD09B480
:1056700000FEFDCF8091D8008F7D8093D80080916F
:10568000E00082608093E0008091E00081FDFCCF2B
:105690000E944715CFCA85E290E00E9428311B8204
:1056A0001C821D828E837ECE2B30310508F0B6CC55
:1056B000EECC2B30310508F062CC9ACC1092B900B8
:1056C0008CE08093B8000895B0E0A0E0EAE6FBE249
:1056D0000C94652CB82EEB010E94A9146C01EE24E9
:1056E000E394F12CC431D10560F025E0E22EF12CD9
:1056F000CF3FDC0731F0CE0164E170E00E944A2C1C
:105700007B0184EAA82E94E8992E1092BC00A09206
:10571000BC000E94A9148C018091BC0087FF0DC0C1
:105720008091B900887F8830F9F08091B900887F36
:105730008031D1F00FEF1FEF08C0C8010E949A140A
:10574000E816F90648F70EEF1FEFCF3FDC07E9F246
:10575000C6010E949A14C817D907B8F6C801CDB778
:10576000DEB7EBE00C94812CB092BB009092BC00B1
:105770000E94A9148C018091BC0087FF0AC080910F
:10578000B900887F883111F08034A1F610E000E084
:10579000E5CFC8010E949A14E816F90660F7D3CF46
:1057A0000F931F93CF93DF93EB018093BB0084E8AB
:1057B0008093BC000E94A9148C018091BC0087FFDB
:1057C00011C02091B900287F81E090E0283211F4C7
:1057D00090E080E0919581959109DF91CF911F91A3
:1057E0000F910895CF3FDC0741F3C8010E949A143E
:1057F000C817D90710F78EEF9FEFEFCFB0E0A0E00A
:10580000E4E0FCE20C94682C6B018A017901B90197
:105810000E94642BE6010C0D1D1DC017D10711F06D
:1058200097FF08C024E92093BC00CDB7DEB7E8E0BD
:105830000C94842CB70189910E94D02BEECFB0E05C
:10584000A0E0E5E2FCE20C94682CC62F6A01790125
:10585000B8010E94642B97FD0CC0B8018C2F0E94E8
:10586000D02BE601EC0CFD1CCE15DF0511F097FFE7
:1058700008C024E92093BC00CDB7DEB7E8E00C9463
:10588000842CB80189910E94D02BEECF84E98093BB
:10589000BC000895AA1BBB1B51E107C0AA1FBB1F78
:1058A000A617B70710F0A61BB70B881F991F5A95AC
:1058B000A9F780959095BC01CD0108952F923F9254
:1058C0004F925F926F927F928F929F92AF92BF9210
:1058D000CF92DF92EF92FF920F931F93CF93DF93BC
:1058E000CDB7DEB7CA1BDB0B0FB6F894DEBF0FBE19
:1058F000CDBF09942A88398848885F846E847D8466
:105900008C849B84AA84B984C884DF80EE80FD8067
:105910000C811B81AA81B981CE0FD11D0FB6F894DD
:10592000DEBF0FBECDBFED010895991B79E004C025
:10593000991F961708F0961B881F7A95C9F78095CE
:10594000089587FB082E062687FD819567FD6195E2
:105950000E94952C0EF4919507FC8195089597FB74
:10596000072E16F4009407D077FD09D00E944A2C28
:1059700007FC05D03EF4909581959F4F0895709552
:1059800061957F4F0895EE0FFF1F0590F491E02D74
:105990000994692796276927782787277827089504
:1059A0000E94C431332312F48A1B9B0B0C94DA2C13
:1059B0000E94C431B7FF0895821B930B08958F9204
:1059C0009F92AF92BF92CF92DF92EF92FF92CF93CE
:1059D000DF93EC01688179818A819B816115710572
:1059E0008105910521F464E279ED8BE597E02DE1E5
:1059F00033EF41E050E00E94703149015A019B01B0
:105A0000AC01A7EAB1E40E948F316B017C01ACEEDE
:105A1000B4EFA50194010E949D31DC01CB018C0DF6
:105A20009D1DAE1DBF1DB7FF03C00197A109B04862
:105A300088839983AA83BB839F77DF91CF91FF905F
:105A4000EF90DF90CF90BF90AF909F908F90089590
:105A50000E94DF2C089580E091E00E94DF2C0895E1
:105A6000B0E0A0E08093000190930101A0930201B7
:105A7000B09303010895FB01DC0102C005900D9273
:105A800041505040D8F708950F931F93CF93DF9361
:105A90008230910510F482E090E0E0916605F0918B
:105AA000670530E020E0B0E0A0E0309799F42115E0
:105AB000310509F447C0281B390B24303105C0F5E6
:105AC0008A819B816115710571F1FB01938382834A
:105AD000FE0111C04081518102811381481759078D
