:100000000C94B2050C94CF050C94CF050C94CF053D
:100010000C94CF050C94CF050C94CF050C94CF0510
:100020000C94CF050C94CF050C949D130C943418AC
:100030000C940F240C94CF050C94CF050C94CF0591
:100040000C94CF050C94CF050C94CF050C94CF05E0
:100050000C94CF050C9476140C94CF050C94CF051A
:100060000C94CF050C94CF050C94CF050C94CF05C0
:100070000C94CF050C94CF050C94CF050C94CF05B0
:100080000C94CF050C94CF050C94CF050C94CF05A0
:100090000C94CF050C94CF050C94CF050C94CF0590
:1000A0000C94CF050C94CF050C94CF0505010902E3
:1000B000A10185020901A1000509190129081500FE
:1000C0002501950875018102050109300931158165
:1000D000257F95027508810609381581257F9501D0
:1000E00075088106050C0A38021581257F95017572
:1000F000088106C0C005010980A101850319012AF4
:10010000B700150126B700950175108100C0050CD8
:100110000901A101850419012AA002150126A002E6
:10012000950175108100C005010906A1018506052C
:100130000719E029E71500250195087501810205D9
:1001400007190029EF1500250195F07501810205B9
:10015000081901290595057501910295017503910D
:1001600001C00660FF0961A1010962150026FF00B8
:100170009520750881020963150026FF00952075FA
:10018000089102C005010906A101050719E029E748
:1001900015002501950875018102950175088101F9
:1001A0000507190029FF150026FF0095067508812F
:1001B000000508190129059505750191029501753C
:1001C000039101C030300000DA0281FFD9F1DB2059
:1001D000A4A62EAF00A0C000A1C800AED580A81F65
:1001E000D300408D1420001E0F0500047F3F1F64C4
:1001F0003214643214783C1E1E140A057363723A7A
:100200002E007363723A2A004C69676874002D2DC2
:100210002D2D2D006361703A2E006361703A2A0023
:100220006E756D3A2E006E756D3A2A0053746174C6
:1002300073002D2D2D2D2D0020554E4400205247AA
:100240004200204E41560020424153004C617965E6
:10025000720000010101010101010101020202021B
:100260000202020202030303030303030304040460
:100270000404040405050505050606060606070729
:1002800007070708080808090909090A0A0A0B0BE1
:100290000B0C0C0C0D0D0D0E0E0E0F0F0F10101180
:1002A0001111121213131414151516161717181806
:1002B00019191A1A1B1B1C1D1D1E1E1F202021226E
:1002C00022232424252626272829292A2B2C2D2DB4
:1002D0002E2F30313232333435363738393A3B3CD1
:1002E0003D3E3F404142434445464748494A4C4DC4
:1002F0004E4F50515354555658595A5B5D5E5F618D
:100300006264656668696B6C6D6F7072737577781F
:100310007A7B7D7E8082838587888A8C8E8F91937D
:100320009596989A9C9EA0A2A3A5A7A9ABADAFB1A4
:10033000B3B5B7BABCBEC0C2C4C6C9CBCDCFD1D489
:10034000D6D8DBDDDFE2E4E7E9EBEEF0F3F5F8FA2F
:10035000FDFFFFAA7F55402223252628292A2C2D80
:100360002F3032333536383A3B3D3E4042434547E5
:10037000494A4C4E5051535557595A5C5E6062641D
:100380006668696B6D6F71737577797B7D7F81832B
:100390008587898A8C8E90929496989A9C9E9FA12C
:1003A000A3A5A7A8AAACAEAFB1B3B4B6B8B9BBBC4D
:1003B000BEBFC1C2C3C5C6C7C9CACBCCCDCED0D1C2
:1003C000D2D2D3D4D5D6D7D7D8D9D9DADADBDBDBBA
:1003D000DCDCDCDCDCDDDDDDDDDCDCDCDCDCDBDB5B
:1003E000DBDADAD9D9D8D7D7D6D5D4D3D2D2D1D0AF
:1003F000CECDCCCBCAC9C7C6C5C3C2C1BFBEBCBBAC
:10040000B9B8B6B4B3B1AFAEACAAA8A7A5A3A19F23
:100410009E9C9A98969492908E8C8A8987858381E7
:100420007F7D7B79777573716F6D6B6968666462C8
:10043000605E5C5A5957555351504E4C4A49474596
:100440004342403E3D3B3A3836353332302F2D2C37
:100450002A29282625232200AF00AE000000000034
:10046000000000000000000000000000000000008C
:100470000000000000000000000000000000007EFE
:100480000F00D4FFFFFFC70000007800000000004D
:100490000000002A2B2800000000000000000000DF
:1004A00000000000000029000000002C1E34202164
:1004B0002224342627252E362D3738271E1F2021AB
:1004C00022232425263333362E37381F040506070A
:1004D00008090A0B0C0D0E0F101112131415161724
:1004E00018191A1B1C1D2F3130232D350405060742
:1004F00008090A0B0C0D0E0F101112131415161704
:1005000018191A1B1C1D2F3130354C6152540055DF
:100510000056425F006000610057005C005D005EB5
:1005200000000059005A005B0000000000620063F8
:1005300000580049004A004B0061524C004D004EEB
:100540000000000000520000000000500051004F69
:10055000000000000000000000000021782B78203F
:1005600078010024782378000000002678257800A0
:1005700000000028782778000000000000007C00C0
:1005800000000009025B00030100A0FA090400005A
:1005900001030101000921110100012240000705AA
:1005A0008103080001090401000203000000092181
:1005B0001101000122220007058203200001070526
:1005C00003032000010904020001030000000921C7
:1005D0001101000122B60007058403200001120169
:1005E0000002000000085059698301000102000167
:1005F0000E03590061006D0070006100640000008E
:100600001E034D0061007400740069006100200049
:10061000440061006C002000420065006E00000094
:100620000403090407087F0807003E5B4F5B3E0098
:100630003E6B4F6B3E001C3E7C3E1C00183C7E3CDB
:1006400018001C577D571C001C5E7F5E1C000018A4
:100650003C180000FFE7C3E7FF0000182418000063
:10066000FFE7DBE7FF0030483A060E00262979292C
:100670002600407F05050700407F05253F005A3CC6
:10068000E73C5A007F3E1C1C0800081C1C3E7F00F3
:1006900014227F2214005F5F005F5F0006097F0164
:1006A0007F00006689956A0060606060600094A2C7
:1006B000FFA2940008047E04080010207E20100091
:1006C00008082A1C0800081C2A0808001E10101020
:1006D00010000C1E0C1E0C0030383E383000060E88
:1006E0003E0E060000000000000000005F00000059
:1006F000000700070000147F147F1400242A7F2ABB
:100700001200231308646200364956205000000886
:1007100007030000001C224100000041221C0000D1
:100720002A1C7F1C2A0008083E0808000080703040
:1007300000000808080808000000606000002010A1
:10074000080402003E5149453E0000427F4000003F
:100750007249494946002141494D33001814127F1E
:1007600010002745454539003C4A4949310041219F
:1007700011090700364949493600464949291E00F2
:1007800000001400000000403400000000081422A3
:100790004100141414141400004122140800020132
:1007A000590906003E415D594E007C1211127C0031
:1007B0007F49494936003E41414122007F41414144
:1007C0003E007F49494941007F09090901003E4136
:1007D000415173007F0808087F0000417F410000FD
:1007E0002040413F01007F08142241007F404040EB
:1007F00040007F021C027F007F0408107F003E4102
:1008000041413E007F09090906003E4151215E0039
:100810007F091929460026494949320003017F0111
:1008200003003F4040403F001F2040201F003F404A
:1008300038403F0063140814630003047804030085
:100840006159494D4300007F4141410002040810B5
:100850002000004141417F000402010204004040A9
:100860004040400000030708000020545478400036
:100870007F284444380038444444280038444428FD
:100880007F0038545454180000087E09020018A450
:10089000A49C78007F080404780000447D40000098
:1008A0002040403D00007F102844000000417F4070
:1008B00000007C04780478007C0804047800384444
:1008C00044443800FC182424180018242418FC0080
:1008D0007C080404080048545454240004043F4491
:1008E00024003C4040207C001C2040201C003C4058
:1008F00030403C004428102844004C9090907C00EC
:100900004464544C44000008364100000000770065
:1009100000000041360800000201020402003C26EB
:1009200023263C00000000000000404040F0F8F8A2
:10093000FF38FFF8F83FF8F8FF38FFF8F8F04040CC
:100940004000000000000080C0C0C0800000C0C0A7
:100950008000000080C0C000C0C0000080C0C00097
:1009600000000000C0C0C0C0C000C0C00000000047
:100970000000000000000000000000000000000077
:100980000000000000000000000000000000000067
:100990000000000000000000000000000000000057
:1009A000000000C0F0F8FC3E1E06010000007F4180
:1009B00041417F007F4141417F000080C0E07E5B7C
:1009C0004F5BFEC00000C000DCD7DEDEDED7DC00FF
:1009D000C000000000000000000000000000000057
:1009E00000000000000000000000494949FFFFFF2F
:1009F000FFE0DFBFBF00BFBFDFE0FFFFFFFF4949F0
:100A00004900000000001F3F6060E0BF1F007F7FC3
:100A1000071E381E077F7F007F7F0E1F3B7160001F
:100A2000000000007F7F0C0C0C007E7E007F7E03A8
:100A300003007F7E03037E7E03037F7E000F3E70F4
:100A40003C063C703E0F00327B49493F7E007F7E72
:100A50000303001E3F69696F2600000000000000CC
:100A6000000000030F1F3F3C7870600000007F41D2
:100A700041417F007F4141417F00307B7F783020C2
:100A80002030787F3B0003000F7F0F0F0F7F0F0098
:100A90000300000000000000000000000000000053
:100AA00000000000000000000000010101070F0F1E
:100AB0007F0F7F0F0F7E0F0F7F0F7F0F0F0701013B
:100AC0000100000000000000000000010100000023
:100AD0000000000000000000000000000000000016
:100AE0000000000000000000000000000000000006
:100AF00000000000000000000000000000000000F6
:100B000000000000000000000000000000000000E5
:100B100000000000000000000000000000000000D5
:100B200000000000000000000000000000000000C5
:100B300000000000000000000000000000000000B5
:100B400000000000000000000000000000000000A5
:100B50000000000000000000000000000000000095
:100B60000000000011241FBECFEFDAE0DEBFCDBFD2
:100B700025E0AAEDB1E001C01D92AC37B207E1F764
:100B800011E0A0E0B1E0E6E8F5E602C005900D92C4
:100B9000AA3DB107D9F70E9436240C945A320C941E
:100BA0000000E8EDF0E080818E7F80831092E2000B
:100BB0001092DA001092E100A0EEB0E08C9181601A
:100BC0008C9380818F77808319BCA7EDB0E08C91E6
:100BD0008E7F8C9380818F7E808310923A0308955C
:100BE0002091E4003091E50095E6A9012091EC0008
:100BF000822F817020FF06C08091E80080FF06C030
:100C000080E008952091E80022FD1AC080915F03E2
:100C1000882389F0853089F08091EB0085FD0FC035
:100C20002091E4003091E50042175307F9F291500A
:100C3000E1F684E0089582E0089583E0089581E07C
:100C400008958091610387FF13C08091E80082FFBF
:100C500006C08091E8008B778093E80004C0809103
:100C60005F038111F2CF089580915F038823D9F348
:100C70008091E80080FFF8CF8091E8008E77ECCF7C
:100C8000982F9093E900242F762F50E0891731F0A8
:100C90007091EC002091ED005091F00021FD07C013
:100CA0009F5F973071F78093E90081E0089530915C
:100CB000EB003E7F3093EB003091ED003D7F3093B1
:100CC000ED003091EB0031603093EB007093EC005D
:100CD0002093ED005093F0002091EE0027FDE0CF2F
:100CE00080E00895B0E0A0E0E8E7F6E00C94EF2C97
:100CF000C8EDD0E088818F7E8883E7EDF0E08081C9
:100D00008160808384E082BF81E080933A038881A0
:100D10008E7F888302EE10E0F80110821092DA00D4
:100D200081EEC82ED12CF601108288818F778883BE
:100D300088818068888388818F7D888319BC109220
:100D40005F031092600310925E0310925D0390EEB9
:100D5000E92EF12CF70180818B7F8083888181606F
:100D6000888342E060E080E00E944006F6018081D6
:100D70008E7F8083F801808181608083808188609C
:100D80008083F70180818E7F808388818061888362
:100D9000CDB7DEB7E8E00C940B2DFC018091670322
:100DA0009091680386179707A0F06115710529F4E3
:100DB0009091E8009E779093E80090E061157105AE
:100DC00051F4911108C08091E80082FF34C080E0A6
:100DD0000895BC01F2CF80915F038823C1F1853073
:100DE000C1F18091E80083FD30C08091E80082FD70
:100DF000EACF8091E80080FFE1CF8091F30020915D
:100E0000F200382F6115710519F02830310558F0BE
:100E100091E02830310509F090E02091E8002E772C
:100E20002093E800CBCF81918093F100615071094C
:100E30002F5F3F4FE7CF80915F03882341F08530DC
:100E400041F08091E80083FFBECF81E0089582E009
:100E5000089583E0089580913C03089587E797E71C
:100E6000909301088093000888E19AE00FB6F89407
:100E7000A895809360000FBE90936000FFCF2FB7BE
:100E8000F89460913403709135038091360390910A
:100E900037032FBF0895209127012223C9F0209105
:100EA000380327FF15C0E62FE695E695E695EE3167
:100EB000D8F4E80FF92FF11D677021E030E001C090
:100EC000220F6A95EAF720958281282322830895CC
:100ED000FC01329608962191621303C0DF0111973D
:100EE0001C92E817F907B9F70895209127012223EA
:100EF000C1F02091380327FF14C0E62FE695E69550
:100F0000E695EE31F8F4E80FF92FF11D677021E056
:100F100030E001C0220F6A95EAF78281822B82833A
:100F20000895FC0132962FEF30E04191641751F0A3
:100F30002F3F19F4411101C0232F3F5F3630A9F72D
:100F40002F3F09F40895820F911D27FD9A95FC010A
:100F500062830895A3E0B0E0E0EBF7E00C94F52C99
:100F6000209131033091320328173907A1F0909373
:100F7000320380933103E0912F03F09130033097D7
:100F800051F024E029839B838A830680F781E02D3A
:100F9000CE01019609952396E2E00C94112DA3E071
:100FA000B0E0E5EDF7E00C94F52C20912D033091A5
:100FB0002E0328173907A1F090932E0380932D0359
:100FC000E0912F03F0913003309751F023E0298313
:100FD0009B838A830680F781E02DCE0101960995D7
:100FE0002396E2E00C94112DE0912F03F091300351
:100FF000309729F00190F081E02D0995089580E067
:101000000895FA01811101C0FB0109950895089521
:101010008091220380FF02C08695089580E00895A4
:1010200080912203982F9E7F29F4817082608093A3
:10103000220308958635E8F381708465F8CFAF9276
:10104000BF92DF92EF92FF920F931F93CF93DF93A4
:10105000082F162FE901E42FF0E0EE5AFD4F611141
:1010600010C0E4915E2F4E2F4983E8835A83DF91AD
:10107000CF911F910F91FF90EF90DF90BF90AF90B5
:101080000895E62EF12C4491D42EE42FF0E026E0D2
:10109000829FC00111242FEF30E0B9010E94D12CB2
:1010A000802F90E0880F991F55E5569FD001579FDC
:1010B000B00D11248A1B9B0B982F990F890F590192
:1010C000AE18BF08AE9ED001AF9EB00DBE9EB00D53
:1010D00011245B2F189F80011124012F1127590122
:1010E000A01AB10AAE9E8001AF9E100DBE9E100DDB
:1010F00011245901A81AB108AE9CC001AF9C900DF3
:10110000BE9C900D1124892F9927281B390B2E9FE7
:10111000C0012F9F900D3E9F900D1124E92F62304A
:101120007105A1F050F46115710509F49DCF61308E
:10113000710581F0EB2F512F97CF6430710569F065
:1011400080F06630710509F48FCFF4CFE42F4B2F78
:10115000592F8ACFE42F412F87CFEB2F542F492FC0
:1011600083CF4B2F5D2DE12F7FCF8091C40280FD77
:1011700016C081FD16C082FD16C08091C30288236F
:10118000A1F0883280F428E0829FC001112468E237
:1011900070E00E94362D862F672B39F0089582E08B
:1011A000089584E0089588E0089581E0089580918D
:1011B000C40280FD14C081FD14C082FD16C0809160
:1011C000C202882381F08E3180F420E5829FC00125
:1011D00011246EE170E00E94362D862F089584E17F
:1011E000089588E2089588E0089580E5089580E0F4
:1011F0000895F894E82FE295EF70F0E031A1282FE0
:101200002F7081E090E001C0880F2A95EAF7982FAF
:101210009095932391A392A1892B82A3789408950A
:101220009091380392FF06C0282F28712830F9F4D6
:10123000877F846093FF06C0282F28712831F1F43E
:10124000877E84612091390320FF06C0382F3871D2
:101250003830D9F4877F816021FF06C0282F28719C
:101260002831D1F4877E816194FD877E0895282FEF
:1012700024712430F9F68B7F8860DCCF282F24710D
:10128000243101F78B7E8861DDCF382F3171313009
:1012900019F78E7F8860E0CF282F2171213121F747
:1012A0008E7E8861E1CFCF93DF93EC018238910588
:1012B000B9F108F041C08133910509F49FC050F5A0
:1012C0008932910509F48FC08A9709F49EC0C1152F
:1012D00020E5D20708F0BDC0C11530E4D30708F0FF
:1012E0000AC1C03ED10508F0A5C0CD3CD10508F02B
:1012F00000C1C83AD10508F08FC0C53AD10508F041
:10130000F0C0C130D10539F1209729F1C430D105A1
:1013100010F546C08533910509F460C0C997B9F648
:1013200080913803837009F044C18091390383FFB1
:1013300012C0C9E2D0E00FC0833E9105A1F178F45C
:10134000803E910509F1823E910509F0C0CF809160
:10135000380382FD21C0CE01DF91CF910895863EF2
:10136000910561F1873E910571F1843E910509F087
:10137000AECF8091390381FFEECF80913803C7EE65
:10138000D0E084FD0DC0E7CF8091380380FD33C0ED
:101390009091390390FFDFCFC3EED0E084FFDBCF25
:1013A000D0E0C0E0D8CF8091380382FDFFC090919B
:1013B000390390FDFEC084FFCECFF2CF8091380379
:1013C00083FDDDCFC8CF8091380383FDF5C09091B8
:1013D000390391FFF0CFC4EED0E0BDCF8091380348
:1013E00085FFB9CFA6CF8091380385FDE8C08091F5
:1013F000390383FFB0CFC9E3D0E0ADCF809138038C
:1014000086FFA9CFCAE2D0E0A6CF8091380386FF3D
:10141000A2CFC1E3D0E09FCFC13CD10508F6C85AA6
:10142000D0E0CC0FDD1FC45BDE4F0990D881C02D0A
:10143000D46491CFC11540E2D40708F0AAC0C11509
:1014400081E0D80708F087CFC83ED10508F483CFE4
:10145000A7CFC03622E5D20718F5C03432E5D3074E
:1014600008F053C0C03242E5D40708F047C0C115A8
:1014700082E5D80708F47FC02C2F2695269540E2F8
:10148000249F900111248C2F8370C1E0D0E002C012
:10149000CC0FDD1F8A95E2F7C22BD32BDD685BCF23
:1014A000C03A22E5D20760F4C03832E5D30708F429
:1014B00041C0CF71D0E0DC2FCC27C46FD06A4BCFB6
:1014C000C03C42E5D40708F44AC0C03E82E5D807D4
:1014D00008F066CFDC2FCC27CC27DF71C06FD06A35
:1014E0003ACFC55AD0E0C75BDE4FC881D0E0D064A8
:1014F00032CFD06530CFDF70D06A2DCFCF71D0E042
:10150000DC2FCC27C16FD06A26CF2C2F26952695AD
:10151000277080E2289F900111248C2F8370C1E0F6
:10152000D0E002C0CC0FDD1F8A95E2F7C22BD32B8F
:10153000DC6811CF2C2F26952695277040E2249F3A
:10154000900111248C2F8370C1E0D0E002C0CC0F39
:10155000DD1F8A95E2F7C22BD32BDA68FCCE8C2FE5
:101560008F710E941009C82FD0E0DC2FCC27CC2728
:10157000DF71D062F0CE8C2F8F710E94100935E0A0
:10158000D695C7953A95E1F7CF709C2FEC01D069BD
:10159000E2CE8D2F8F710E94100990E0982F88273E
:1015A00088279F719C012C2BE901E3CFC2EED0E08C
:1015B000D2CEC0EED0E0CFCEC6EED0E0CCCEC5E3EA
:1015C000D0E0C9CE8091610281111092610208952C
:1015D0008095909160029823909360020895809185
:1015E0003D0290910C02981301C008958F5F87709F
:1015F000FACF953080F5843070F544E0949F9001E7
:101600001124820F932F911D682F677023E0969508
:1016100087952A95E1F7FC01EE0FFF1FE80FF91FF0
:10162000E350FE4F50E040E080E0219130E0062E94
:1016300002C0369527950A94E2F721703327042ECD
:1016400001C0220F0A94EAF7822B4F5F5F4F4330AD
:10165000510559F7089580E00895953098F5843044
:1016600088F544E0949F90011124820F932F911DDF
:10167000282F277041E001C0440F2A95EAF723E0A4
:10168000969587952A95E1F7FC01EE0FFF1FE80F6D
:10169000F91FE350FE4F90E080E070E05191DF01D0
:1016A00011979B01082E02C0369527950A94E2F700
:1016B000217021952527242325272C9301968330FB
:1016C000910561F7089580936C03089580916C03F0
:1016D000982F9670963021F488600E94630B0895CD
:1016E000877FFBCF21E030E001C0220F8A95EAF727
:1016F000209580916C0382230E94630B0895909142
:101700003E028095892380933E02282F277091F412
:10171000282F082E000C330B9217130659F09091C6
:10172000390392FF07C08595859585950E94720BB8
:1017300010923E02089521E030E001C0220F8A9508
:10174000EAF780916C03822B0E94630B08958093CB
:1017500062020895982F92959F7011F0892F94E05E
:10176000282F2695269511F09E5F822F869509F0E9
:101770009F5F892F0895CF93DF93682F81E06A30B0
:1017800019F06D3031F480E00E94490CDF91CF9167
:101790000895809176059091770526E0FC01A0E7F9
:1017A000B5E001900D922A95E1F7603E08F458C02B
:1017B00026E0FC0111922A95E9F7C0917605D091B7
:1017C000770546E050E0BE0180E795E00E94032FD8
:1017D0009E0120573340892B41F1C90145E0969580
:1017E00087954A95E1F741E050E0BA0102C0660FE3
:1017F000771F8A95E2F7CB0160916E0370916F03BA
:10180000862B972BB9016B5F7F4FE5E07695679547
:10181000EA95E1F702C0440F551F6A95E2F7842B61
:10182000952B90936F0380936E032A5F3F4F4091F7
:101830006D03642F70E0C9010E94D12C481B463013
:1018400010F4240F311D211572E0370710F030E03D
:1018500020E020593C4F309377052093760596CFB2
:10186000F6E06F9FB00111246C5D794F46E050E0C7
:101870000E94C22DA2CFCF93DF93EC01FE01849191
:10188000811103C0DF91CF9108950E94BB0B219677
:10189000F5CFCF93382FE0917605F0917705E0579B
:1018A000F34020916D03622F70E0CF010E94D12C94
:1018B000281B822F332361F066E00E941C2DC82F65
:1018C000C15010F4CF91089580E20E94BB0BF8CF75
:1018D0009F01280F311D2115324018F080E0F0E003
:1018E000E0E08E0F9F2F911D80599C4F90937705BC
:1018F00080937605E7CF0E943B0C81E00E94490C63
:1019000008958091600290915F02892B8093DC01A1
:10191000909161029923A1F0892B8093DC01809141
:1019200027018823E1F18091380387FF38C08EE1D9
:10193000EEEDF1E090E08150A0F591110E94E20AF5
:1019400040E250E06FE372E08CED91E00E94032FE3
:10195000892B21F180E2ECEDF1E0AFE3B2E0019000
:101960000D928A95E1F7E0912F03F09130033097C3
:10197000A9F080912701882359F08091380387FFCF
:1019800007C08091DC018093DD0186E08093DC015B
:101990000280F381E02D8CED91E00995089586E0B9
:1019A000C7CF2191222339F29F5FC5CF882321F031
:1019B0000E94E80A0E94810C0895882339F09091D2
:1019C0006002982B909360020E94810C08950F93FF
:1019D0001F93CF93DF93EC01FC0101900020E9F706
:1019E0008F0101501109C017D10728F0DF91CF9165
:1019F0001F910F91089589910E94BB0BF4CFB0E025
:101A0000A0E0E5E0FDE00C94EF2C6C017B0164E6C6
:101A100070E088E70E94EB2BEC0197FD12C010E00C
:101A200000E0F601E00FF11F849164E670E00E948F
:101A3000572CEC01892B29F40F5F1F4F0E151F0542
:101A400081F70E94CD2CCE01CDB7DEB7E8E00C9433
:101A50000B2D80912B0390912C03911103C091E0E9
:101A600089270895882369F062E070E089E594E0B1
:101A70000E94FF0C892B19F080912B03089510927E
:101A80002B0380912B03EBCFCF93C0912B0380913D
:101A90002C038823D1F00E943F07605A75418F4F75
:101AA0009F4F60932703709328038093290390939B
:101AB0002A03C11108C062E070E087E594E00E944B
:101AC000FF0C892B29F0C0912B038C2FCF91089507
:101AD00081E080932B03F7CF0F931F93CF93DF9376
:101AE0008B01EA0190915F03943061F58093E900E6
:101AF0008FEF9091E800815095FD06C095ED9A9585
:101B0000F1F700008111F5CF8091E80085FF1AC040
:101B10000E94F005811111C08091E80085FD06C08A
:101B20008091E8008E778093E800F2CFF8018191F0
:101B30008F018093F100219779F78091E8008E77EB
:101B40008093E800DF91CF911F910F91089543E0BA
:101B500050E0BC0184E00E946C0D089546E050E026
:101B6000BC0184E00E946C0D0895CF93DF93EC01DB
:101B700080912701811111C048E050E0BE0181E051
:101B80000E946C0D80E2FE01ADE3B3E001900D9286
:101B90008A95E1F7DF91CF9108958091380387FF0F
:101BA00005C040E284E050E0BE01EACF48E081E0B9
:101BB000FACF8091220380FD0AC0EAEDF2E01182A3
:101BC00010821282339652E0E53FF507C1F7849AFE
:101BD00031B33F7E21B320614FB7F8948AED92E094
:101BE000FC015191CF0168E021BB000000C057FF0C
:101BF00031BB550F000000C000C000C031BB00C0A9
:101C00006A9591F7F2E0853F9F0751F74FBF8FE547
:101C100094E00197F1F700C000000895EF92FF9261
:101C20000F931F93CF93DF938C01CAEDD2E0F12C79
:101C3000E12CF80194816091240380912303F4E066
:101C4000EF16F104ECF49923E9F09E01409125038D
:101C50000E941F082FEFE21AF20A239689E0E81685
:101C6000F10439F70E94D90DF801848190E00196C2
:101C7000817099278483CDB7DEB7E6E00C940D2DF3
:101C8000992319F39E0140E0E3CFB0E0A0E0EBE43C
:101C9000FEE00C94EB2CEC014C81042F10E0980139
:101CA000D8010E944B329B01AC010E9416324B01BD
:101CB0005C01E0E2F0E0E01BF10BA5E5B0E0AC0177
:101CC0009B010E9416326B017C019F01DF010E9483
:101CD000572D9B01AC010E9421329B01AC01280DC4
:101CE000391D4A1D5B1DC701B6010E942932F22E23
:101CF000822F90E039E23F1598F143E0249F900154
:101D0000112435952795122F10959AEDC92E92E042
:101D1000D92E00E085E5E82EEF188E2D01FD8F2DE0
:101D20009601412F609124030E941F080F5F53E02A
:101D3000C50ED11C093089F70E94D90D9C8181E024
:101D4000992319F0903219F48FEF80932601809136
:101D50002601890F8C83CDB7DEB7ECE00C94072DFC
:101D600025E530E0A901481B590BCA019A01220F51
:101D7000331F280F391F37FFC4CF2F5F3F4FC1CF0D
:101D80000F931F93CF93DF93CAEDD2E0FE01118230
:101D900010821282339682E0E53FF807C1F710E027
:101DA00000E08091D802082E000C990B0817190743
:101DB0008CF180912501082E000C990B801791075A
:101DC0004CF19E01409125036091240380912303EF
:101DD0000E941F080F5F1F4F23960930110509F756
:101DE0000E94D90D809124019091D802980F909370
:101DF000D80220912501280F20932501121614F4F2
:101E000098301CF0819580932401DF91CF911F9130
:101E10000F910895198218821A82DCCFB0E0A0E0F9
:101E2000E4E1FFE00C94EE2CFC018281DD24DA94E5
:101E300080FD02C0DD24D3940AED12E0D0E0C0E0C2
:101E400029E0B22EF80111821082128294E0E92E6C
:101E5000F12CC12C8091D7028C0D8A30C4F16B2DEE
:101E60000E94282D892F082E000C990B8C179D0796
:101E700091F4809125038E9DA0018F9D500D11241A
:101E80005595479555954795980160912403809104
:101E900023030E941F08CD0CF1E0EF1AF108D1F6E0
:101EA00021960D5F1F4FC930D10561F60E94D90DF3
:101EB0008091D70291E0D91210C081110CC088E046
:101EC0008093D702CDB7DEB7E9E00C940A2D87FFE7
:101ED000CACF875FC8CF8150F3CF90E00196BE0193
:101EE0000E94362DEDCFEF92FF921F93CF93DF9399
:101EF000EC018AEDE82E82E0F82E10E08C8197014B
:101F00004091250360912403810F0E941F08145EF5
:101F100083E0E80EF11C1C3F89F70E94D90D9A81DD
:101F20008C8190FF08C08F5F8C83DF91CF911F91D0
:101F3000FF90EF9008958150F7CF9091220390FF8A
:101F40000CC0EAEDF2E0818360834283339692E035
:101F5000E53FF907C1F70E94D90D0895A3E0B0E06D
:101F6000E4EBFFE00C94F32C8C018091D9028111F9
:101F70000AC09E012F5F3F4F4FEF6FEF0E941F0877
:101F80008A818093D902F8016481613069F080917F
:101F9000D90240E0662361F040E0623011F44091E4
:101FA000D90280E060E004C06091D90240E080E0A6
:101FB0000E949D0FF801848190E0019663E070E03B
:101FC0000E94362D84832396E4E00C940F2DA3E029
:101FD000B0E0EDEEFFE00C94F52C9091220390FF21
:101FE0000AC09E012F5F3F4F0E941F084B816981ED
:101FF0008A810E949D0F2396E2E00C94112DCF93CD
:10200000DF93EC01E2E2F3E0438162818C810E9484
:10201000E70F8C818F5F8C83DF91CF910895CF93F1
:10202000DF93EC01EC81F0E0E95AFC4F4491E2E2ED
:10203000F3E0628181810E94E70F8C818F5F8C8346
:10204000DF91CF910895CF93DF93C6ECD0E060E0AD
:10205000CE010E94C3312196C11584E0D807B9F79B
:10206000DF91CF9108951F93CF93DF93122F843088
:10207000E0F46530D0F44430C0F498E0699FE001AA
:10208000112450E0440F551FC40FD51F98E2899FBB
:10209000C00DD11D1124632FCE0186960E94C3313D
:1020A000612FCE0187960E94C331DF91CF911F919E
:1020B0000895B0E0A0E0EFE5F0E10C94ED2C8BE0AA
:1020C000C82E85E0D82E10E000E07601C0E017C0F1
:1020D00003301105B9F0F501259134914D2F6C2F86
:1020E000802F0E94331082E0A80EB11CDF5FD43035
:1020F00079F7CF5F88E0E80EF11CC53049F0570151
:10210000D0E0E6CF21E030E04D2F6C2F83E0E9CF27
:102110000F5F1F4F88E2C80ED11C04301105A9F6CD
:10212000CDB7DEB7EAE00C94092DCF93C82F6FEF3F
:10213000811163E282E290E00E94C3316FEFC1112E
:1021400061E083E290E00E94C3316FEFC11167E06C
:1021500084E290E00E94C331CF91089580E00E9414
:10216000951060E085E290E00E94C3310E94591012
:102170000E94231081E00E94951008950F931F93F1
:10218000CF93DF93843030F5653020F5443010F57F
:1021900028E0629F8001112450E0440F551F040F76
:1021A000151F38E2839F000D111D1124C80186966A
:1021B0000E94AF31C82FD0E0DC2FCC27C801879612
:1021C0000E94AF319E01282BC901DF91CF911F9151
:1021D0000F91089590E080E0F8CF462F753040F4DD
:1021E000643030F4843020F4672F0E94BE100895CC
:1021F00090E080E00895CF92DF92FF920F931F93BB
:10220000CF93DF936C0100916C0380916202082BE5
:10221000C7E0D0E010E0FC2EC8010C2E02C095955E
:1022200087950A94E2F780FD0CC02197A0F7F12C66
:102230008F2DDF91CF911F910F91FF90DF90CF9065
:102240000895B6018C2F0E94ED100E94530901974A
:1022500061F3EECFCF93DF93EC010E94FB10BE0140
:102260000E94ED100E945309DF91CF910895FC0167
:1022700083819481892B29F08081918189238F3FEB
:1022800051F480E00895843FE1F717C0883EA8F03C
:10229000813FB9F712C0808191810E942A119295E5
:1022A0009F70963099F358F4925F9F70923048F780
:1022B000803F19F040F7883E20F781E008959A5F4B
:1022C000F4CF82E290E00E94AF31833289F483E25E
:1022D00090E00E94AF31813059F484E290E00E9496
:1022E000AF3191E0873009F090E0892F8170089537
:1022F00080E0FCCFB0E0A0E0E0E8F1E10C94E72C56
:10230000FC016280448081E08483E7E5F3E074901F
:10231000E6EDF3E0E491009125030695015810E005
:10232000000F111F012F1127C5EFD2E02AEDC22E99
:1023300022E0D22E32E2832E33E0932EAA24AA94F6
:10234000B12C55245A94E719EE2EF12C82E0861513
:1023500030F0809123038883809124038983411086
:1023600016C01B821A8296014A81698188810E9467
:102370001F08259683E0C80ED11C8C169D0631F7E8
:102380000E94D90DCDB7DEB7E0E10C94032D8B810F
:102390008823E9F081508B83859DC00111246C81D5
:1023A00070E00E94D12CFB01FF27E95AFC4F849179
:1023B000E82FE719E59DC0011124B7010E94D12C37
:1023C00080912503689FB00111247A83CCCF0E94AD
:1023D000B22DB5010E94362D8017910724F682E0B8
:1023E000861588F40E94B22DB5010E94362D88838F
:1023F0000E94B22D209124032695622F70E00E9446
:10240000362D280F29831A8280912503893C20F0DC
:1024100088EC8C838B83A7CF8431D8F784E1F9CF04
:10242000CF92DF92EF92FF926B017C010E94100825
:10243000B701A60188E090E00E94D531FF90EF90AF
:10244000DF90CF900895A3E0B0E0E9E2F2E10C94D0
:10245000E82CF82E762EE42E622E9091220390FF27
:1024600029C0E92FE695AE2FB0E0A156BE4F8C9162
:102470008093D5029E7F923009F59E012F5F3F4FDA
:102480008F2D0E941F084B8169818A810E949D0FB8
:10249000F092230370922403E0922503662051F00A
:1024A000609122037091230380912403909125036E
:1024B0000E9410122396EFE00C94042D823019F440
:1024C000E0902503E5CF863019F4F0902303E0CFA8
:1024D0008930D9F38931E1F6E9518E2F8170582E78
:1024E000E695F0E0EE5AFC4FE4910E2F10E08AEDF5
:1024F000C82E82E0D82EB12CA12C99E0892E912CE7
:10250000C501B4010E94D12C8F2D511013C0860F2C
:1025100096014E2D672D0E941F08A00EB11E83E06C
:10252000C80ED11C85EFC81682E0D80649F70E9474
:10253000D90DAECF861BECCFE2E2F3E0438121E17F
:10254000421B08F440E021E0628181810E94231255
:102550000895E2E2F3E0438121E1420F08F44FEFF6
:1025600021E0628181810E9423120895E2E2F3E07A
:10257000628121E1621B08F460E021E043818181F6
:102580000E9423120895E2E2F3E0628121E1620FEA
:1025900008F46FEF21E0438181810E9423120895A6
:1025A000E2E2F3E0818121E04381628188500E9470
:1025B00023120895E2E2F3E0818121E04381628108
:1025C000885F0E942312089580912603882319F0C2
:1025D00081508093260360912203709123038091A0
:1025E0002403909125030E941012089580912603E0
:1025F000833018F48F5F80932603609122037091DB
:10260000230380912403909125030E9410120895C2
:10261000E2E2F3E083E0808311828FEF82838383A1
:10262000148260817181828193810E9410120895C9
:1026300067EE7EEF90E080E00E94E13160E082E0B2
:1026400090E00E94C33160E083E090E00E94C331DB
:102650001092620260E074E184E090E00E94E13157
:1026600060E086E090E00E94C3316FEF87E090E089
:102670000E94C33140E050E0BA0188E090E00E943F
:10268000D53160E08DE090E00E94C33140E050E041
:10269000BA0188E190E00E94D53160E087E190E0E6
:1026A0000E94C33140E050E0BA018CE190E00E940A
:1026B000D53170E060E080E290E00E94E13140E0DE
:1026C00050E0BA0188E190E00E94D53180E00E949C
:1026D00095100E94AE1040E050E0BA018FE090E00B
:1026E0000E94D53140E050E0BA0183E190E00E94C1
:1026F000D53108959091390392FB222720F92817AC
:1027000079F080FB92F990933903609138037091CE
:10271000390384E090E00E94E13182E00E947F0B67
:10272000089590E080E00E94BD31873E9E4F19F4ED
:102730000E946111089580E008951F920F920FB6D4
:102740000F9211242F933F934F935F936F937F9337
:102750008F939F93AF93BF93EF93FF938091E1008B
:1027600082FF09C08091E20082FF05C08091E100F4
:102770008B7F8093E1008091DA0080FF24C08091FC
:10278000D80080FF20C08091DA008E7F8093DA002D
:102790008091D90080FF9DC080E189BD82E189BD23
:1027A00009B400FEFDCF81E080935F0380913A037E
:1027B000811109C00E94D1050E9472068091E20039
:1027C00084608093E2008091E10080FF17C08091D7
:1027D000E20080FF13C08091E2008E7F8093E200D0
:1027E0008091E20080618093E2008091D800806255
:1027F0008093D80019BC85E080935F038091E1004D
:1028000084FF2BC08091E20084FF27C080E189BD56
:1028100082E189BD89B5982F917080FFFBCF8091AF
:10282000D8008F7D8093D8008091E1008F7E8093C7
:10283000E1008091E2008F7E8093E2008091E200CF
:1028400081608093E20080916003882309F447C08F
:1028500084E080935F0380915F038091E10083FFB8
:1028600027C08091E20083FF23C08091E100877F31
:102870008093E10082E080935F0310926003809177
:10288000E1008E7F8093E1008091E2008E7F809353
:10289000E2008091E20080618093E20042E060E02B
:1028A00080E00E9440068091F00088608093F000F4
:1028B000FF91EF91BF91AF919F918F917F916F9118
:1028C0005F914F913F912F910F900FBE0F901F90EE
:1028D000189519BC10925F0310923A0374CF80913F
:1028E000E30087FD93E090935F03B5CF78941F9248
:1028F0001FB61F9211248F939F93AF93BF93809124
:10290000340390913503A0913603B09137030196BB
:10291000A11DB11D8093340390933503A09336031A
:10292000B0933703BF91AF919F918F911F901FBEBE
:102930001F9018959C014FB7F894809134039091A3
:102940003503A0913603B09137034FBF821B930B21
:1029500008952FB7F8948091340390913503A09196
:102960003603B09137032FBF08959091220390FF53
:102970002CC0917081112AC092609093220366232B
:1029800051F0609122037091230380912403909170
:1029900025030E94101260912203669570E04BE0BF
:1029A00050E089E191E00E94F62E892BB1F010925F
:1029B000D60281E08093D20220E04091250360910D
:1029C0002403809123030E94231208958B3210F078
:1029D0009465D3CF880F982BD0CF81E08093D60217
:1029E0000E94A9149093D0028093CF02E2CF8091ED
:1029F00022038695815009F48AE261E00E94B514B1
:102A000008958091220386958F5F8B3208F081E0D4
:102A100061E00E94B5140895CF93DF93C82FD62F9D
:102A20000E9408088C1738F08D1728F40E940115B1
:102A3000DF91CF91089561E08C2F0E94B514F8CFFB
:102A40000E94A9149C019091CB028091CC02982BFA
:102A500021F03093C8022093C7029091CD0280915B
:102A6000CE02982B21F03093C6022093C502E0914C
:102A70002F03F0913003309749F082E08093C90230
:102A80000480F581E02D89EC92E00995089510927B
:102A9000600280912701EEEDF1E0882329F1809119
:102AA000380387FF21C08EE1DF011D928A95E9F787
:102AB00090E080E00E94CF0790E080E00E94AA07AB
:102AC00010925F020E94810C86E0E9ECF2E0DF01E7
:102AD0001D928A95E9F71092C2021092C3021092D9
:102AE000C4020E942015089586E0DECFAAE2B0E07D
:102AF000ECE7F5E10C94F42C81E693E02091F100F1
:102B0000DC012D93CD01B3E089369B07B9F78091A5
:102B10006203833009F472C0B8F4813009F449C00B
:102B2000823009F4B3C08091E80083FF8BC28091AA
:102B30006103909162039A3008F084C2E92FF0E0BB
:102B4000E45AFD4C0C944A2D8A3009F48EC08B3027
:102B500009F471C0893039F780916103813219F726
:102B60008091650390916603009711F00297D9F662
:102B70008091E800877F8093E8008091E80082FFE1
:102B800038C09091F3008091F200029731F4809167
:102B9000F100813011F0863021F48091F1008093B2
:102BA0003C038091E8008B778093E8000E94210627
:102BB000BACF80916103813A09F0B5CF8091E800E6
:102BC000877F8093E8008091650390916603892B4D
:102BD00061F460E28DE393E070E00E94CD068091A5
:102BE000E8008B778093E8009ECF60E090E080E083
:102BF000F3CF80915F038111C0CF95CF80916103A6
:102C0000813A09F090CF8091650390916603892BFA
:102C100009F089CF8091E800877F8093E800809158
:102C2000E80080FFFCCF809127018093F100809124
:102C3000E8008E77B9CF80916103813209F073CFBC
:102C40008091650390916603892B09F06CCF809188
:102C5000E800877F8093E8000E942106809163034B
:102C6000809327010E9447155ECF809161038132D6
:102C700009F059CF8091E800877F8093E8000E9497
:102C800021068091640380933B034DCF80916103C3
:102C9000813A09F048CF8091E800877F8093E8006F
:102CA0008091E80080FFFCCF80913B03BECF80384D
:102CB00099F0823809F0C6C1809165038F70873022
:102CC00008F0C0C18093E9008091EB0085FB882764
:102CD00080F91092E90006C080915D0390915E0337
:102CE000911182609091E800977F9093E800809323
:102CF000F1001092F1008091E8008E779FC1882347
:102D000009F48DC1823009F09DC180916303811166
:102D100090C1809165038F702FEF280F263008F047
:102D200091C18093E9002091EB0020FF82C1933094
:102D300031F48091EB0080628093EB007AC1909136
:102D4000EB0090619093EB0021E030E001C0220F96
:102D50008A95EAF72093EA001092EA008091EB004E
:102D60008860EACF81116EC1109163031F77809153
:102D7000E3008078812B8093E3008091E800877FD7
:102D80008093E8000E9421068091E80080FFFCCF3C
:102D90008091E30080688093E30082E0111183E07A
:102DA00080935F034FC18058823008F04BC120915F
:102DB0006303309164032C3DE3E03E07A1F583E01B
:102DC0008A838AE289834FB7F894DE01139620E064
:102DD0003EE051E2E32FF0E050935700E49120FFF2
:102DE00003C0E295EF703F5FEF708E2F90E0EA3006
:102DF000C0F0C7968D939D932F5F243159F74FBF35
:102E00008091E800877F8093E8006AE270E0CE015D
:102E100001960E94CD068091E8008B778093E800B0
:102E200011C1C096E7CF8091650390916603432F4F
:102E300055274330510509F44AC078F54130510512
:102E400009F47AC08BE590E0E3E8F5E04230510503
:102E500009F0F8C02091E800277F2093E800209136
:102E60006703309168038217930708F49C0140E0E0
:102E70002115310509F065C0411163C08091E8005A
:102E800082FDC9CF80915F03882329F2853019F232
:102E90008091E80083FFF2CFBECF4132510509F4A3
:102EA0003CC04232510509F0CDC08330910508F095
:102EB000C9C0FC01EE0FFF1FE353FE4F0190F081EC
:102EC000E02D86539E4FDC018C9190E01AC0332791
:102ED00021303105D1F02115310561F02230310565
:102EE00009F0B0C0E0EFF5E0E4918E2F90E0E0EF64
:102EF000F5E007C0E0E2F6E0E4918E2F90E0E0E23A
:102F0000F6E0009709F49EC0A5CFE0E0F6E0E4917A
:102F10008E2F90E0E0E0F6E0F4CF8330910508F0EA
:102F200091C0880F991FFC01ED52FE4F0190F08176
:102F3000E02D89E090E08ECF82E190E0EEEDF5E0CB
:102F400089CF80915F03882309F465CF853009F428
:102F500062CF8091E80083FD5ECF8091E80082FD22
:102F60008DCF8091E80080FF83CF9091F300809116
:102F7000F2002115310519F08830910550F041E03B
:102F8000089709F040E08091E8008E778093E80090
:102F90006FCF44914093F100319621503109019651
:102FA000E8CF803809F04EC08091E800877F809399
:102FB000E800809160038093F1009DCE811142C0B2
:102FC000109163031230F0F58091E800877F8093C1
:102FD000E800109360030E942106112311F084E0A1
:102FE00005C08091E30087FDFACF81E080935F0305
:102FF00042E061EC81E00E94400642E261EC84E044
:103000000E94400642E261EC82E00E94400642E2F9
:1030100060EC83E00E94400680915F0313C08091C2
:103020006303813079F481E0933009F080E080938C
:103030005E031092E9008091E800877F8093E800AA
:103040000E9421068091E80083FF0AC08091E80079
:10305000877F8093E8008091EB0080628093EB0093
:10306000AA96E3E00C94102D1F920F920FB60F92C8
:1030700011242F933F934F935F936F937F938F937D
:103080009F93AF93BF93CF93DF93EF93FF93D09131
:10309000E900DF708091EC00C82FC17080FDC0E8AE
:1030A0001092E9008091F000877F8093F00078947F
:1030B0000E9476151092E9008091F000886080935C
:1030C000F000CD2BCF70C093E900FF91EF91DF911D
:1030D000CF91BF91AF919F918F917F916F915F91B0
:1030E0004F913F912F910F900FBE0F901F90189509
:1030F0000E9447152FEF84E39CE0215080409040D0
:10310000E1F700C0000088E19AE00FB6F894A895B6
:10311000809360000FBE90936000FFCF662309F498
:103120005DC08D3C41F40E94D70881958093CC020C
:103130000E94201508958E3C19F40E94D708F6CFFE
:103140008F3C31F40E94D70881958093CB02F0CF59
:10315000803D19F40E94D708F8CF893D29F40E94D8
:10316000B5088093CD02E4CF8A3D21F40E94B508D2
:103170008195F7CF8B3D31F40E94B50881958093FE
:10318000CE02D6CF8C3D19F40E94B508F8CF9FE24D
:10319000980F983070F4815D990B21E030E001C008
:1031A000220F8A95EAF78091CA02822B8093CA0285
:1031B000BFCF8D3D31F48091C40281608093C40201
:1031C000B7CF8E3D21F48091C4028260F7CF8F3D4E
:1031D00009F0AECF8091C4028460F0CF4091CB0261
:1031E0008D3C59F48091CC0287FF0DC01092CC0227
:1031F00041110BC01092C20208C08E3C81F4809134
:10320000CC0218169CF3442381F08091CD0290915A
:10321000CE02892B09F08CCF1092C30289CF8F3C4C
:1032200049F447FFF0CF1092CB028091CC0281117C
:10323000ECCFE0CF803D19F41416ACF3E4CF9091BD
:10324000CD02893D29F41916F4F61092CD02DBCF98
:103250008A3D19F497FFD7CFF8CF9091CE028B3DDE
:1032600029F497FFD0CF1092CE02CDCF8C3D19F428
:103270001916CCF3C8CF9FE2980F983090F4815D77
:10328000990B21E030E0B90102C0660F771F8A95E3
:10329000E2F7CB0180959091CA0289238093CA02FC
:1032A000B2CF8D3D31F48091C4028E7F8093C402F1
:1032B000AACF8E3D21F48091C4028D7FF7CF8F3D40
:1032C00009F0A1CF8091C4028B7FF0CF882399F1C0
:1032D0009CEF980F913A40F4682F8CED91E00E949A
:1032E0004B070E94810C089590E2980F983050F49B
:1032F000877091E001C0990F8A95EAF7892F0E94A3
:10330000E80AEFCF9BE5980F933028F490E080E037
:103310000E94CF07089598E5980F993128F490E01E
:1033200080E00E94AA07089593E3980F933118F460
:1033300060E00E948E180895CF93C82F8823D9F19A
:103340008CEF8C0F813AC8F580912701882311F109
:103350008091380387FF1EC0EC2FE695E695E69531
:10336000F0E0E452FE4F828190E04C2F477021E064
:1033700030E002C0220F331F4A95E2F782239323E5
:10338000892B91F06C2F8CED91E00E944B070E94ED
:10339000810C0AC0EEEDF1E084EE91E02191C217BC
:1033A00089F38E179F07D1F76C2F8CED91E00E9467
:1033B00075070E94810CCF91089580E28C0F8830B0
:1033C00068F4C77021E030E001C0220FCA95EAF727
:1033D00080916002822B80936002EBCFEBE5EC0FD3
:1033E000E33040F4F0E0E75BFE4F808190E00E9424
:1033F000CF07E1CFE8E5EC0FE93150F4F0E0EE0F54
:10340000FF1FE45BFE4F808191810E94AA07D3CF0A
:1034100083E38C0F833178F661E08C2F0E948E1845
:10342000CACF1F93CF93DF93182FEB010E949C19F3
:10343000209739F4812F0E946619DF91CF911F9157
:1034400008958FE99FE00197F1F700C000002197F0
:10345000EFCF70E060E0893311F460E570E00E9426
:10346000111A08950F931F93CF93DF93C62FD42F74
:10347000022FFC0182818823A9F060936B030E94D4
:10348000A91490936A0380936903C77081E001C017
:10349000880FCA95EAF70E94DD0CDF91CF911F914A
:1034A0000F91089580916B03681332C08091690376
:1034B00090916A030E949A14883C910548F510E2A5
:1034C0001D0FCD17B9F080E28C0F883040F4C77023
:1034D00081E001C0880FCA95EAF70E94D60C183027
:1034E00048F481E09D2F977001C0880F9A95EAF704
:1034F0000E94DD0C802F0E94291A183070F6D770B8
:1035000081E001C0880FDA95EAF70E94D60CC5CF9A
:10351000C77081E001C0880FCA95EAF7F6CFB0E026
:10352000A0E0E5E9FAE10C94F02CE82FF0E0E55793
:10353000FB4FD490282F26952695269530E0F9014B
:10354000E558FB4F0491877010E0082E02C01595D6
:1035500007950A94E2F701701127F901E559FB4F2D
:10356000E490F12C082E02C0F594E7940A94E2F757
:1035700091E0E922FF24F901E55AFB4FC491D0E024
:1035800002C0D595C7958A95E2F7C170DD27011570
:10359000110519F081EE0E949C19E114F10419F053
:1035A00086EE0E949C198D2D0E94291AE114F104C7
:1035B00019F086EE0E9466190115110519F081EEC9
:1035C0000E946619CD2B19F08CE20E94291ACDB702
:1035D000DEB7E7E00C940C2DA8E0B0E0E2EFFAE1F2
:1035E0000C94EB2C7C01DC0113968D919C9114972B
:1035F000892B39F08C9111969C9189238F3F09F08A
:1036000051C52896ECE00C94072D0E94FB10182F52
:10361000682F89819A810E942D0B69817A81812F7F
:103620000E94ED108C01F7018281882309F42FC5D7
:103630009801225037472031310508F0F2C48FEF4E
:1036400093E00E94AF31811183C0025076ECC72E07
:10365000D12C01114AC0FE01339686E0DF011D9294
:103660008A95E9F76AE0962E86010F5F1F4FC60123
:103670000E94AF3189831A82882309F469C081309E
:1036800009F079C05601B2E0AB0EB11CC8010E942E
:10369000AF318A83882309F45BC09FEF980F933082
:1036A00090F5E3E0CE0ED11CC5010E94AF318B83B3
:1036B000882309F44DC01C828E010F5F1F4FD80173
:1036C0008C91882389F2813009F08EC011969C91EB
:1036D000119712968C91913009F04FC00E5F1F4FD9
:1036E0000E94291A0F5F1F4FEACFC114F4E0DF06D2
:1036F00079F1C6010E94AF31811101C001502FEF55
:10370000C21AD20AA6CF65018430B1F602E010E0F9
:103710006501FFEFCF1ADF0AC5010E94AF31E1E07A
:10372000F0E0EC0FFD1FE00FF11F8083882381F094
:103730008C3741F4E2E0F0E0EC0FFD1FE00FF11FE9
:103740001082BACF0F5F1F4F56010730110501F7E6
:1037500080913E02877009F454CFD70112968C9164
:10376000882309F44ECF8091390382FF4ACF82E04B
:103770000E947F0B46CF68019FCF923029F40E5FE5
:103780001F4F0E949C19AECF933029F40E5F1F4F3C
:103790000E946619A7CF943019F00F5F1F4FA2CF78
:1037A0000E5F1F4F30E020E0B8016F5F7F4FF801E0
:1037B00041818053990B8A30910558F0215031098D
:1037C00008F490CF8FE99FE00197F1F700C0000067
:1037D000F5CF929EF001939EF00D11249C012E0FC7
:1037E0003F1F842F8B01E0CF0E948F1A7BCF81E097
:1037F0000E949B0B0E94660BABCF81E00E94720B74
:10380000F9CF82E0F5CF823049F46501F2E0CF0EC6
:10381000D11CF60184910E949C1934C4833049F470
:103820006501F2E0CF0ED11CF60184910E94661969
:1038300029C4843009F026C46501F2E0CF0ED11C02
:10384000F601249190E080E0F60131962053330B8D
:103850002A30310550F0019708F414C4AFE9BFE0F5
:103860001197F1F700C00000F6CF989EA001999E35
:10387000500D1124C901840F951F24916F01E4CFCD
:103880000E948F1A6501FEC3F801E851FC47E7303A
:10389000F10510F5EA59FD4C0C944A2D26E241EE53
:1038A00061EEC7010E94321A53CF27E245EE65EE62
:1038B000F8CF26E241EE60EEF4CF27E245EE64EE6B
:1038C000F0CF26E241EE62EEECCF27E245EE66EE67
:1038D000E8CF28E241E0EBCFD70112968C91882304
:1038E00009F409C410926B03C8019057839708F03C
:1038F000ECC384E090E00E94BD3190933903809343
:103900003803F801E150F047E232F10520F4E359C1
:10391000FD4C0C944A2D80913803816080933803CC
:1039200095C0809139038860809339038FC080915E
:1039300038038260F3CF809138038460EFCF8091A9
:1039400038038860EBCF809139038160EDCF80919F
:1039500039038260E9CF809138038061DFCF8091A5
:1039600038038062DBCF809138038064D7CF0E9418
:103970004715809138038068D1CF809138038C60DF
:10398000CDCF809139038360CFCF809138038E7F74
:10399000C5CF80913903877FC7CF809138038D7F52
:1039A000BDCF809138038B7FB9CF80913803877F5B
:1039B000B5CF809139038E7FB7CF809139038D7F4A
:1039C000B3CF809138038F7EA9CF809138038F7D4C
:1039D000A5CF809138038F7BA1CF0E94471580919E
:1039E00038038F779BCF80913803837F97CF809167
:1039F00039038C7F99CF8091380382FB992790F906
:103A000021E0922790FB82F990FB83F987CF809188
:103A10003903982F909591708E7F892B90FB81F9B7
:103A200083CF90913803892F8F7B96FF806476CF68
:103A30000E94471590913803892F97FB87F980588A
:103A40006DCF61E08EE090E00E94C3316091380359
:103A50007091390384E090E00E94E1310E944715A3
:103A600077CE60E0EFCF90913803892F8F7E94FF5F
:103A7000806154CF90913803892F8E7F90FF8160B1
:103A80004DCF90913903892F877F93FF88604CCF6A
:103A90008091220380FF12C08E7F80932203609169
:103AA00022037091230380912403909125030E94A7
:103AB00010121092D6020E94D90D4ACE81608093D6
:103AC000220361E086950E94B51442CE47EF54E18F
:103AD00061E075E10E9401083BCE41E055E167EFEE
:103AE00074E1F8CF40ED52E16AED72E1F3CF4AEDB7
:103AF00052E160ED72E1EECF46EB52E163EC72E130
:103B0000E9CF43EC52E166EB72E1E4CF4CE952E1DC
:103B100069EA72E1DFCF49EA52E16CE972E1DACF9A
:103B200044EE52E166EF72E1D5CF46EF52E164EE2A
:103B300072E1D0CF61E081E0C6CF65E082E00E9413
:103B40000C1506CE68E086E0FACF6EE089E0F7CF8C
:103B500064E18FE0F4CF67E185E1F1CF61E088E1D6
:103B6000B2CF62E289E1EBCF61E083E2ACCF6AE2FF
:103B700085E2E5CF0E944715BFEFE4E3FCE0B150DA
:103B8000E040F040E1F700C000000E942E076FEF18
:103B90007FEF90E080E00E94E1310E9478188091F0
:103BA000390382FB882780F991E089270E947A13E4
:103BB000F701828100811181882309F446C0C80180
:103BC0000E94FB10D82E682FC8010E942D0BB8014F
:103BD0008D2D0E94ED100E9453098C01882ED70173
:103BE0001296DC9012971596BC90B2943FE0B322E7
:103BF00080913E028770C1F0AD2CDD20B1F0812FA5
:103C0000807F803421F080E2800F883068F08091DE
:103C1000390382FF09C082E00E947F0B80913E023F
:103C20008770AA24A3948111A12C912E92942FE045
:103C30009222BBE0B91508F474C0E92DF0E0E15719
:103C4000FD4C0C944A2D80E0B1CFC8010E94F90AC6
:103C5000D82EBDCFE12FEF70CE2E107F19F0C29479
:103C600090EFC922DD20B9F0CC2069F080E2800F0E
:103C7000883010F0811009C080916002C82AC0927B
:103C800060020E94810C802F4AC080915F02C82A86
:103C9000C0925F02F6CF802F0E946619CC2009F4F3
:103CA00040C0005E083010F0811004C08C2D0E94CE
:103CB000E80A06C0C09480915F02C822C0925F02E9
:103CC0000E94810C2EC0F12FFF70CF2E107F10327A
:103CD00019F0C29480EFC822882089F021E0821672
:103CE00009F46CC0DD2009F476C0BB2009F46CC077
:103CF000F701858180FFC7CF8F70858365C02091D4
:103D0000390322FD34C0DD2061F1CC2039F08091EF
:103D10006002C82AC09260020E94810C80E00E946A
:103D20009C19A92DA850BB0B149710F40E94F407FE
:103D3000AA2009F466CC80913E0280FD62CCF70196
:103D400012828595859585950E949B0BC7010E94DF
:103D5000EC1A80913E028595859585950E94720B9F
:103D600050CC80E00E946619CC20D9F29FCFDD2094
:103D700099F0909161028C2D892BB11003C00E94A3
:103D8000DD0CCFCF31E0B312FACF22FFCACF9817A4
:103D900041F280936102C5CFB11006C00E94E20AD1
:103DA0008C2D0E94D60CBDCF81E0B81609F4B9CF96
:103DB0008C2D0E94D60C0E94E20AB3CFDD2031F098
:103DC00095E09B1508F4ADCF8C2DD9CFA4E0AB15B1
:103DD00008F4A7CFE5CFBB2019F3F9E38F1209C090
:103DE0002FEF37EE83E0215030408040E1F700C0F4
:103DF0000000802F0E94661994CF812F86958695AA
:103E0000837061F0813009F08CCFC8019370D110BC
:103E100002C080E090E00E94AA0783CFC80193709F
:103E2000D11002C080E090E00E94CF077ACF6D2DC4
:103E3000802F0E948E1875CF812F837089F5D11045
:103E400070CF402F429546954770440F440F802F06
:103E50008F70042E01C0880F0A94EAF7202F20717A
:103E600004FF07C02FE030E001C0220F4A95EAF7B7
:103E70002095169516951370123069F050F4309114
:103E80006202113029F0822B83230E94A70B49CFB5
:103E9000832B822BFACF282B809162028227F5CFC9
:103EA0008695DD2011F0812F8170882309F439CFA8
:103EB000402F429546954770440F440F802F8F70D6
:103EC000042E01C0880F0A94EAF7202F207104FF06
:103ED00007C02FE030E001C0220F4A95EAF7209595
:103EE000169516951370123069F050F430916C03EA
:103EF000113029F0822B83230E94630B12CF832B76
:103F0000822BFACF282B80916C038227F5CF1F706C
:103F1000DD2029F0812F0E949B0B802F30CF802F36
:103F20000E94D60C812F0E94720BFBCE802F92EF45
:103F30008916B1F1981570F0A0EF8A16D1F0B1EFA3
:103F40008B1691F0DD2009F45CC0B1109CCE812F5E
:103F50008F712AC0E3EF8E1651F1F4EF8F12F2CF7A
:103F60008091390382FD2FC0812F8F71DD20D9F21E
:103F70001BC0DD2081F024E02B1508F4D2CE1F7188
:103F800081E090E0012E01C0880F0A94EAF7909139
:103F90006C038927B1CF35E03B1508F4C2CEEFCFD3
:103FA000812F8F71D110BFCF0E949B0BBACE80E0C2
:103FB000DD2009F4A1CF1F7181E0012E01C0880F1F
:103FC0000A94EAF799CFDD2089F01F71812F0E94B2
:103FD0009B0B8091390382FF07C0A8E01A9FC001A4
:103FE0001124836080933E02812FDECF81E00E9406
:103FF0007F0BB1E0BB1508F094CE82E00E947F0BEE
:1040000090CEBB2059F0893309F0F3CEEFEFF7EEF5
:1040100023E0E150F0402040E1F7E9CE812F8F719D
:1040200082CF0115F7E71F0709F4E1CB013027E73D
:10403000120709F4E6CB0115AEE71A0709F024CC04
:10404000882309F449CC44ECA42E41E0B42E5AE074
:10405000952EF5018491882309F43ECC813009F036
:104060000FCC6501FFEFCF1ADF0AF6018491813092
:1040700009F0C9CB6501F2E0CF0ED11CF6018491A5
:104080000E94291A5601EFEFAE1ABE0AE2CF0115BF
:1040900037E7130709F4B1CB013097E7190759F651
:1040A00082E0ACCB85E0F701DE01119601900D9224
:1040B0008A95E1F7D70112962C9189819A81211175
:1040C000A4CA0E94F90A182FA8CA0631BCE71B0728
:1040D00001F5809160028A7A91E009F490E0909372
:1040E000FC0169E2811165E38CED91E00E947507A6
:1040F0000E94810C2DCB0631ECE71E0751F5809113
:10410000FC0169E2811165E38CED91E00E944B07AF
:10411000EFCF0330FCE71F0709F439CD50F4011548
:104120003CE7130709F426CD01301C4709F435CDCF
:104130003FCD0B359CE7190709F485CD0C35ACE76D
:104140001A0709F42CCD0A351C4709F031CD81E05E
:104150002DCD809160028272F801E052F847E5317E
:10416000F10508F025CDE556FD4C0C944A2D1F9322
:10417000CF93DF9380910B02807F09F049C080913B
:104180000802882309F444C080913D02D0910C02BA
:104190006091060270910702A0910902B0910A0293
:1041A000C62FC72316E0D81799F190E0109711F0A9
:1041B000CF3F19F401968770F6CF189F9001199F91
:1041C000300D1124F901E35FFD4F41814713F2CF18
:1041D00040814613EFCF42814111ECCF438154819E
:1041E0004A1B5B0B483C510528F780910B028F70EE
:1041F000806180930B02F901EE5EFD4F80818F702C
:104200008061808386E092E00E94EC1A0E94EF0AAF
:10421000DF91CF911F910895A1E1B0E0E2E1F1E2D9
:104220000C94ED2C8C0185E0F801DE011D960190C7
:104230000D928A95E1F7F801E28086E0A82E82E0EF
:10424000B82E6091090270910A026115710509F496
:1042500026C19091060240910702892F84238F3F47
:1042600009F41DC120813181C380D480F0900802FF
:10427000F601E61BF70BFF2009F4DCC080910B026E
:10428000582F507FE83CF10508F09FC051116BC0DA
:10429000FE2C431314C0921312C0E11010C08F7093
:1042A000806180930B02C5010E94EC1A80910B0281
:1042B000F80185838F2D6196EAE00C94092DC114D5
:1042C000D10429F0822F83238F3F09F003C180E0BE
:1042D000F82FF170DF2E80FF3CC080913D024091AD
:1042E0000C0256E0841315C02D873E878D859E8570
:1042F0000E942A11292F22952F702230F0F02430AD
:1043000018F59F70F1F0F8019581907FD1F4D12CD0
:104310001EC090E0589FF001599FF00D1124E35FFB
:10432000FD4F6181361306C06081261303C0628190
:10433000E6120FC001968770D5CF9F7011F08823C9
:1043400031F3805E883018F3C8010E94EC1AFD2C0E
:10435000B1CFEE2009F4AECF80910B028160809343
:104360000B02F12CA7CF431306C0921304C0F8012F
:10437000EE2009F479C0C8010E943711882309F1A1
:10438000EE20F9F080910B02803270F0209106024D
:104390003091070238872F831986DB86CA868C877F
:1043A000CE0107960E94EC1A86E0F801A6E0B2E082
:1043B00001900D928A95E1F70E94B720FF24F394B3
:1043C00079CFC8010E94EC1AF9CF51110AC086E0DA
:1043D00092E00E94EC1A86E0F50111928A95E9F7C5
:1043E000C0CF43130FC092130DC0E1100BC0F801F2
:1043F0008583C8010E94EC1A86E0F50111928A9526
:10440000E9F758CFC8010E9437118823D1F2EE2076
:10441000C1F280910B02803238F220910602309175
:1044200007023A8329831B82DD82CC828E83CE01F0
:104430000196B8CFE83CF105F8F6FE2CEE2009F223
:1044400043131FC092131DC080910B0280FD10C04A
:10445000982F907F69F0F8018583903F31F0982F75
:10446000907F905F8F70892B8583C8010E94EC1A22
:1044700086E0F801A6E0B2E001900D928A95E1F79E
:1044800019CFC8010E94371181118ECF80910B0284
:10449000816080930B02C8010E94EC1A0BCFEE20C2
:1044A00009F48FCFC8010E943711F82E882309F430
:1044B00088CF86E0F801A6E0B2E001900D928A95DF
:1044C000E1F780910602909107020E942A110E9452
:1044D000B720F0CE81E08E25FBCEA7E1B0E0E3E788
:1044E000F2E20C94F42C4B8B5C8B6D8B7E8B8F8B60
:1044F000611110925F021A8A198A85E0FE01739693
:10450000DE011D9601900D928A95E1F786E0FE018D
:104510003D96DE01179601900D928A95E1F7CE0146
:1045200007960E940C21882359F016E080913D02E5
:1045300090910C02891343C06796E3E00C94102D10
:1045400086E0FE013796DE01119601900D928A9564
:10455000E1F78A859B85892B41F38F819885892393
:104560008F3F19F320910C0230E0C901019687704A
:10457000992740913D024817190671F40E9447158A
:1045800010920C0210923D0286E0E6E0F2E0DF01BC
:104590001D928A95E9F7C9CF96E0929FD001939F2B
:1045A000B00D1124A35FBD4FFE01319601900D9215
:1045B0009A95E1F780930C020E94EF0AB6CF819F93
:1045C000C0011124835F9D4F0E940C21882309F4B0
:1045D000B3CF80913D0290E0019687709927809338
:1045E0003D02A4CFA5E0B0E0E8EFF2E20C94EC2CA1
:1045F0008E010F5F1F4F85E0F80111928A95E9F750
:104600002EE7C22E21E0D22EF12CE12CAA24A39475
:10461000B12CF60181916F018F3F09F443C0F894EA
:10462000E82FE295EF70F0E021A18F70A50102C0A4
:10463000440F551F8A95E2F7CA01922F982B91A338
:1046400092A18095892382A3789400C0E3E8F1E0E9
:10465000912C31E021912F3F09F4D3C0A22FA295D4
:10466000AF70B0E090968C9190E02F7002C095955D
:1046700087952A95E2F780FDC4C0832F982A330FCF
:1046800051E0E738F50731F7F601319780818F3F28
:1046900011F00E94F90880EA8A95F1F7F801EE0D11
:1046A000FF1D9082EFEFEE1AFE0AF5E0EF16F1041F
:1046B00009F0AFCF45E050E0B8018AE692E00E94F1
:1046C000032F7C01892B41F085E0F801AAE6B2E0D6
:1046D00001900D928A95E1F710926702109166029F
:1046E000112309F497C00E94A9142091640230910B
:1046F0006502AC01421B530B9A01909365028093B3
:1047000064024F3F510511F008F07DC0452B39F18F
:1047100010926602109263026091680270916902C1
:10472000AB014C5F5F4F685E7F4F90E030E0FA0175
:1047300034978081882329F0281708F467C01082F5
:10474000912F3196E417F507A1F7AF014C5F5F4F4A
:104750004617570761F73093660290936302E1149E
:10476000F10469F480916302882309F444C01111B3
:1047700006C00E94A9149093650280936402609120
:1047800068027091690200916602AAE6B2E04DEB00
:1047900052E010E0EE24E394F12C92E0B92E9D91CA
:1047A000FA018191AF019827FB0130E020E0670119
:1047B000022E02C0CC0CDD1C0A94E2F7A92EAC201C
:1047C00039F0A080A11004C0B0828C2511E001E076
:1047D00031962F5F3F4F2430310549F76C5F7F4F93
:1047E000FA0131978083F2E0AF36BF07C1F600933C
:1047F000660210936702809167022596EBE00C94A5
:10480000082D80E03BCF2FEF30E082CF821B8083EA
:10481000312F97CFE114F10409F4A4CFAACF1F924E
:104820001FB61F9211248F939F93AF93BF938091D4
:104830003303811113C08091340390913503A0910B
:104840003603B09137034196A11DB11D8093340307
:1048500090933503A0933603B0933703BF91AF9184
:104860009F918F911F901FBE1F901895CDB7DEB7F7
:10487000AC970FB6F894DEBF0FBECDBF85B780688A
:1048800085BF85B7806885BF84B7877F84BF0FB633
:10489000F894A895809160008861809360001092E0
:1048A00060000FBE80E890E00FB6F894809361003E
:1048B000909361000FBE87EF98E09093DB018093A7
:1048C000DA010E94D1050E9472068091E2008460A4
:1048D0008093E200789480915F038823A1F0109187
:1048E000E9001F709091EC00892F817090FD80E8A5
:1048F000182B1092E9008091E80083FD0E94761544
:104900001F701093E90082E084BD93E095BD9AEF9B
:1049100097BD80936E000E946111811102C00E94B8
:10492000AE1081E080937A0285988D9A86988E9A4F
:104930008FE891E00197F1F700C0000020917A0222
:104940004BE752E0FA018E2F841B821708F468C0EF
:104950000EE711E0D8018D918D018F3F11F00E947B
:10496000F908B1E003381B07A9F781E30E94F908B1
:1049700083E30E94F90882E30E94F90886E30E941B
:10498000F90885E0EDEBF2E0DF01282F1D922A9572
:10499000E9F7EAE6F2E0DF011D928A95E9F784E1A2
:1049A00090E00E94CB2DAC01909369028093680245
:1049B00030E020E0FA01E20FF31F94E011929150F1
:1049C000E9F72C5F3F4F24313105A1F70E94911385
:1049D000811102C00E94181382E090E00E94AF3162
:1049E0008093720284E090E00E94BD31909339037D
:1049F000809338030E94F222EFE7FEE33197F1F74C
:104A000000C000000E94F2228091BD0280FF14C00D
:104A10006FEF7FEF90E080E00E94E1310E942E076F
:104A20008FB185FB882780F97E9904C090E0892B9F
:104A3000819389CF92E0FBCF83E090E00E94AF3179
:104A40000E94A70B83E08093BA0280E280936D03FB
:104A50000E94E52B6DE070E08AED91E00E94FF0C72
:104A6000892BE9F58091BA0263E070E081FDCBC04B
:104A700087ED91E00E94FF0C892B89F56DE070E0D5
:104A800087EC91E00E94FF0C892B49F50E943F07BB
:104A9000605A75418F4F9F4F60932703709328038F
:104AA0008093290390932A03E0E7F3E080E092E00B
:104AB000DF019C011D9221503040E1F7F093770512
:104AC000E09376058FEF9FEF90936F0380936E03D3
:104AD00081E080932C0380932B031092BB02809182
:104AE0006F02811133C00E949113811104C00E9492
:104AF00018130E94081388E090E00E94B731609379
:104B000022037093230380932403909325036E7FE5
:104B100071F40E94081388E090E00E94B73160931E
:104B200022037093230380932403909325030E9410
:104B300010081092D6028091220380FF04C060E02A
:104B400086950E94B51481E080936F028AE091E01F
:104B50009093300380932F038DEB92E065E0662EF7
:104B6000680E80915F0350E4F52E00E112E185307C
:104B700009F482C00E94F22233E7E32E32E0F32EE2
:104B80004DEBC42E42E0D42ED601F70191918D91C8
:104B900022E0E837F20709F479C09817B9F310E07A
:104BA000D6010D916D01F70191907F01901619F1D9
:104BB0009026B12CAA24A394892D8A21A1F0BEA20B
:104BC0001FA391E0802F8A2109F490E098A70E940A
:104BD000A9148160782F9AA789A74EA15FA168A523
:104BE0008AA50E946D22B394AA0CF4E0BF12E4CF10
:104BF000F701319700831F5F153091F60E943F0740
:104C0000EE24E39464C084ED91E034CF80915F039F
:104C1000843029F10E94290D1092330388E190E03D
:104C20000FB6F894A895809360000FBEF0926000D4
:104C300083B7817F846083BF83B7816083BF7894AB
:104C4000889583B78E7F83BF0FB6F894A89580911F
:104C50006000886180936000109260000FBE8091B8
:104C60005E03882349F00E94F222EDEBF2E081918D
:104C7000811182C56E12FBCF80915F03853009F4EC
:104C8000C5CF0E9447150E94F40774CF981387CFB1
:104C90000E94A9148C0180917002909171020817F2
:104CA0001907A1F08FEF89A38AA31BA20E94A91460
:104CB0008160782F9DA38CA349A15AA16BA18DA1DE
:104CC0000E946D221093710200937002E12C80917A
:104CD000D6028823D1F18091D502E0912203E69596
:104CE000E81BE093D102823009F058C0F0E0E850B0
:104CF000FE4FE4910E2F10E02FE0C22E20E1D22EC5
:104D00008091D202882361F01092D2020E94A914ED
:104D10009093D0028093CF021092D4021092D302CB
:104D20000E94A914E091CF02F091D0028E1B9F0B3C
:104D30008F3F9F4750F4E00FF11FF093D002E093B4
:104D4000CF028FEC92E0F6010995B12CF12C809105
:104D50007A02B81608F48EC0F1100E943F078091C5
:104D60002C03882309F464C180E793E090937705CE
:104D7000809376058CE492E00E943B0C80916C035A
:104D80000E94AA0B813009F45DC2882309F4C9C0CE
:104D9000823009F45AC288E392E0C5C0863059F4E3
:104DA000F0E0EB50FE4FE4910E2F10E09FEFC92E84
:104DB0009FE0D92EA5CF893061F4E695F0E0EE5062
:104DC000FE4FE4910E2F10E083E7C82E8FE0D82E1F
:104DD00097CF8F3061F4E695F0E0E151FE4FE4911A
:104DE0000E2F10E0BEE0CB2EBFE0DB2E89CF853149
:104DF00059F4F0E0E451FE4FE4910E2F10E0A0ECE6
:104E0000CA2EAEE0DA2E7CCF08E210E075E4C72EA1
:104E10007EE0D72E883109F473CF833249F4EAEE6D
:104E2000F1E005911491FEEACF2EFFE0DF2E68CF6E
:104E300004EF11E06EE0C62E6EE0D62E843209F447
:104E40005FCF00ED17E057E0C52E58E0D52E853234
:104E500009F056CF8E2F63E00E941C2DE92FF0E061
:104E6000E951FE4FE4910E2F10E0EAE7CE2EE1E18A
:104E7000DE2E46CF0B2D10E0EFB1E5FBEE27E0F97B
:104E80007E994DC080E08E2BD801A558BD4FEC9186
:104E90009E2F9370891709F440C0EE0FEE0FE82B98
:104EA000EC93EF70F0E0E957FE4F980127583D4F23
:104EB00069018081D9019C91890F8C9320E0843015
:104EC00074F0F801E858FD4F80818F5F8083B11046
:104ED00005C06AE070E08AEA0E94111A21E0F6013A
:104EE00080818D3F74F4F801E858FD4F8081815036
:104EF0008083B11005C06AE070E089EA0E94111A4F
:104F000021E0D6018C91082E000C990B64E070E032
:104F10000E94362DF6018083F22AB39418CF82E0E6
:104F2000B2CF87E492E00E947B0C0E94F407182F16
:104F300082E392E00E943B0C8CE292E00E943B0CE8
:104F400080E292E010FF02C086E292E00E943B0CF9
:104F500084E192E011FF02C08AE192E00E943B0CE2
:104F60008CEF91E012FF02C082E092E00E943B0CC5
:104F70008EE092E00E943B0C88E092E00E943B0CA5
:104F80008091250321E1622F0E941C2DD82E809153
:104F900024030E941C2D082F1091230316951695AB
:104FA00016950E9408089091220390FD51C19EE23F
:104FB0001F92DF921F920F931F921F931F928F9346
:104FC0001F929F9388E291E09F938F931F928DE1B0
:104FD0008F938CE792E09F938F930E94102F8CE722
:104FE00092E00E94E70C0FB6F894DEBF0FBECDBF73
:104FF00080916E0390916F03892B09F02BC18091F2
:105000002B038823A9F00E943F07009127031091EA
:1050100028032091290330912A03601B710B820B16
:10502000930B6F3F7F4F8F4F9F4710F40E94290DC6
:10503000E11001C0F1100E94440D86E0E9ECF2E0BD
:10504000DE01119601900D928A95E1F71092CB0244
:105050001092CC021092CD021092CE028B819C81D4
:10506000892B09F44AC08091C7029091C8020E941E
:105070009A149C019091C202992309F4A1C325318D
:105080003105D8F19F3F19F09F5F9093C2021B81B9
:10509000112359F00E94D7089FEF11160CF491E0EC
:1050A000899F802D11248093CB021C81112359F0FC
:1050B0000E94D7089FEF11160CF491E0899F802D74
:1050C00011248093CC023091CB023323B1F0209194
:1050D000CC02222391F045EB3403C0011124992323
:1050E00009F495C19093CB0245EB24039001112460
:1050F000332309F490C13093CC028D819E81892B9A
:1051000009F44AC08091C5029091C6020E949A1487
:105110009C019091C302992309F44DC321353105B7
:10512000D8F19F3F19F09F5F9093C3021D81112317
:1051300059F00E94B5089FEF11160CF491E0899F79
:10514000802D11248093CD021E81112359F00E94DD
:10515000B5089FEF11160CF491E0899F802D112462
:105160008093CE023091CD023323B1F02091CE0254
:10517000222391F045EB3403C0011124992309F453
:105180004EC19093CD0245EB2403900111243323AB
:1051900009F449C13093CE0246E050E0BE016F5F92
:1051A0007F4F89EC92E00E94032F892B61F480915C
:1051B000CB029091CC02892B9091CD02892B9091BA
:1051C000CE02892B11F00E94201586E0FE01319657
:1051D000A9ECB2E001900D928A95E1F70E94F407E4
:1051E0009091BC02891721F08093BC020E943F0776
:1051F00080915F03843009F0B4CC83E08093E900B0
:105200008091E80082FFADCC8091E80090E085FFBE
:1052100006C00E94F005882309F409C191E080913D
:10522000E8008B778093E800992309F49ACC898170
:10523000EFEFE80FE33108F021C1F0E0E055FD4C5D
:105240000C944A2D82E492E06ECE8DE392E06BCE18
:105250009AE2AECE80912C03882309F4D0CE8091BF
:10526000BB028111CCCE0E94440D20916E0330917F
:105270006F032115310509F4C2CE80E041E050E012
:10528000082F10E02A01082E02C0440C551C0A9475
:10529000E2F7B20162237323672B11F48F5FF0CF23
:1052A0009091BA0290FF9AC0880F880F880F809360
:1052B000140110921701895F8093150183E0809398
:1052C000180124E630E047E050E062E171E088E751
:1052D0000E94852C892B09F092CEA80195E0440FFD
:1052E000551F9A95E1F78091BA0280FF89C0EAE9DB
:1052F000F2E080E2DF011D928A95E9F7EBE9F1E047
:10530000FCA7EBA707E911E087E0A82E9924939466
:10531000ABA5BCA52D91BCA7ABA7F80121908F012F
:10532000240E352E311CC10180599C4F1C01E22FE7
:10533000F0E0E656FD4F30E020E07A2C721AB92CEE
:10534000022E01C0BB0C0A94EAF7610190E0D6017D
:105350008D916D018B21672D691B6770862E062E3E
:10536000000C770BB82F01C0BB0F8A94EAF78B2E85
:105370007195619571096770772701C086956A9567
:10538000EAF7882A8081882A80829F5F9830F9F620
:105390002F5F3F4F31962830310579F6EBA5FCA5FC
:1053A000EF59F14009F0B4CF04E610E020E230E01C
:1053B0004AE952E060E488E70E94A62C892B09F0B4
:1053C0001ECE4094509480916E0390916F034822BA
:1053D000592250926F0340926E0311CE8295880F2E
:1053E00080768093140198013695279536952795F8
:1053F00020931701815E809315011092180161CFEF
:1054000040595C4F04E610E020E230E0D3CF81E069
:105410008093CB0269CE81E08093CC026ECE81E096
:105420008093CD02B0CE81E08093CE02B5CE00E273
:1054300010E0CE0101967C018091E80085FD0AC054
:105440008091E8008B778093E8000E94F005882324
:1054500099F3E4CE8091F100D7018D937D01015045
:10546000110951F7DBCE1A828BE08B8322C08A812F
:10547000823009F497C128F4813021F18FEF8983BC
:1054800018C0833039F08430C9F71B821C821D821A
:105490001E820FC08091BD028B838091BE028C83DF
:1054A0008091BF028D838091C0028E838091C10262
:1054B0008F8340E250E0BE016F5F7F4F82E00E9429
:1054C0006C0D4FCB0E943F070E94502D6B837C8355
:1054D0008D839E83EECF8A81823081F0853071F694
:1054E0008091220380FF15C0809122038E7F8093DC
:1054F00022031092D6020E94D90DDBCF6B817C81F2
:105500008D819E810E94502D85E290E00E94C331E2
:10551000D0CF81608093220360E086950E94B5140D
:10552000C8CF4C816B818A810E94BE109827892741
:1055300098279E838D83BDCF2D813E8132272327DF
:1055400032274C816B818A810E943310B2CF0E9436
:105550005910AFCF9A81923009F090CF8830D9F1AD
:10556000893009F464C08B81823009F1A8F481305C
:1055700009F09FCF8C81BFEF8B9FC00111246FEF8B
:1055800070E00E94D12C462F20E06091240380918E
:1055900023030E9423128DCF8330C9F0843009F099
:1055A00088CF20E0409125036D818C81F2CF8C81E2
:1055B000882309F499CF809122038160809322038C
:1055C00060E086950E94B51460E08C81A7CF8C8145
:1055D000809326036ECF8B818230E1F078F48130A6
:1055E00009F067CF80912503EFEF8E9FC001112452
:1055F0006FEF70E00E94D12C6C835BCF8330A1F001
:10560000843009F056CF809123038C83809124034A
:105610008D834FCF8091220380FF04C00E94080831
:105620008C8347CF80E0FCCF80912603F9CF609137
:1056300022037091230380912403909125030E94FB
:10564000101237CF80E18A8334CF83E08A838AE3E4
:105650000CCF0A811B811027012710279E012F5F85
:105660003F4F6901EC80C9018E0D911D7C01C8017D
:105670008A539F4FEC14FD0409F41BCF0A33A3E0B7
:105680001A0750F40E94AF31F60184830F5F1F4F59
:10569000BFEFCB1ADB0AEBCFD60114961C92F6CFE4
:1056A0000A811B81102701271027FE0131966F0107
:1056B000EC80E00EF12EF11CC8018A539F4FE016DA
:1056C000F10609F4F6CE0A33F3E01F0728F4D601F9
:1056D00014966C910E94C331BFEFCB1ADB0A0F5FA7
:1056E0001F4FEACF0E942310E4CE84E0ACCF0A81A2
:1056F0001B81102701271027FE0131966F01EC80D6
:105700009F012E0D311D7901C8018696EC14FD0410
:1057100009F4CFCE003A110558F40E94AF31D601FA
:1057200014968C930F5F1F4FFFEFCF1ADF0AECCF59
:10573000F6011482F7CF0A811B8110270127102759
:105740009E012F5F3F4F6901EC80E00EF12EF11CAE
:10575000C8018696E016F10609F4ABCE003A1105B1
:1057600028F4D60114966C910E94C331BFEFCB1A76
:10577000DB0A0F5F1F4FECCF09BD19BD09B400FE56
:10578000FDCF8091D8008F7D8093D8008091E0007C
:1057900082608093E0008091E00081FDFCCF0E9458
:1057A00047156ACA85E290E00E94AF311B821C82D5
:1057B0001D828E837ECE2B30310508F0B4CCECCC2C
:1057C0002B30310508F060CC98CC1092B9008CE0F9
:1057D0008093B8000895B0E0A0E0E1EFFBE20C9404
:1057E000EC2CB82EEB010E94A9146C01EE24E3947A
:1057F000F12CC431D10560F025E0E22EF12CCF3F31
:10580000DC0731F0CE0164E170E00E94D12C7B0115
:1058100084EAA82E94E8992E1092BC00A092BC00B5
:105820000E94A9148C018091BC0087FF0DC080915B
:10583000B900887F8830F9F08091B900887F803185
:10584000D1F00FEF1FEF08C0C8010E949A14E816AC
:10585000F90648F70EEF1FEFCF3FDC07E9F2C6016C
:105860000E949A14C817D907B8F6C801CDB7DEB799
:10587000EBE00C94082DB092BB009092BC000E940B
:10588000A9148C018091BC0087FF0AC08091B900E7
:10589000887F883111F08034A1F610E000E0E5CF78
:1058A000C8010E949A14E816F90660F7D3CF0F9347
:1058B0001F93CF93DF93EB018093BB0084E8809329
:1058C000BC000E94A9148C018091BC0087FF11C00C
:1058D0002091B900287F81E090E0283211F490E017
:1058E00080E0919581959109DF91CF911F910F9162
:1058F0000895CF3FDC0741F3C8010E949A14C817EE
:10590000D90710F78EEF9FEFEFCFB0E0A0E0EBE804
:10591000FCE20C94EF2C6B018A017901B9010E9421
:10592000EB2BE6010C0D1D1DC017D10711F097FFE1
:1059300008C024E92093BC00CDB7DEB7E8E00C94A2
:105940000B2DB70189910E94572CEECFB0E0A0E05B
:10595000ECEAFCE20C94EF2CC62F6A017901B80145
:105960000E94EB2B97FD0CC0B8018C2F0E94572C86
:10597000E601EC0CFD1CCE15DF0511F097FF08C009
:1059800024E92093BC00CDB7DEB7E8E00C940B2DE2
:10599000B80189910E94572CEECF84E98093BC0016
:1059A0000895AA1BBB1B51E107C0AA1FBB1FA61766
:1059B000B70710F0A61BB70B881F991F5A95A9F7B8
:1059C00080959095BC01CD0108952F923F924F9202
:1059D0005F926F927F928F929F92AF92BF92CF927F
:1059E000DF92EF92FF920F931F93CF93DF93CDB788
:1059F000DEB7CA1BDB0B0FB6F894DEBF0FBECDBF00
:105A000009942A88398848885F846E847D848C84D0
:105A10009B84AA84B984C884DF80EE80FD800C81D9
:105A20001B81AA81B981CE0FD11D0FB6F894DEBFBC
:105A30000FBECDBFED010895991B79E004C0991FF9
:105A4000961708F0961B881F7A95C9F780950895D8
:105A500087FB082E062687FD819567FD61950E94CC
:105A60001C2D0EF4919507FC8195089597FB072E48
:105A700016F4009407D077FD09D00E94D12C07FCC2
:105A800005D03EF4909581959F4F0895709561954E
:105A90007F4F0895EE0FFF1F0590F491E02D0994BC
:105AA00069279627692778278727782708950E94EE
:105AB0004B32332312F48A1B9B0B0C94612D0E94F2
:105AC0004B32B7FF0895821B930B08958F929F92DC
:105AD000AF92BF92CF92DF92EF92FF92CF93DF937C
